{
  "contractName": "supplychain",
  "abi": [
    {
      "anonymous": false,
      "inputs": [
        {
          "indexed": true,
          "internalType": "string",
          "name": "id",
          "type": "string"
        },
        {
          "indexed": false,
          "internalType": "string",
          "name": "name",
          "type": "string"
        },
        {
          "indexed": false,
          "internalType": "uint256",
          "name": "price",
          "type": "uint256"
        },
        {
          "indexed": false,
          "internalType": "uint256",
          "name": "batchId",
          "type": "uint256"
        },
        {
          "indexed": false,
          "internalType": "string",
          "name": "productDescription",
          "type": "string"
        },
        {
          "indexed": false,
          "internalType": "address",
          "name": "owner",
          "type": "address"
        },
        {
          "indexed": false,
          "internalType": "string",
          "name": "manufacturerId",
          "type": "string"
        }
      ],
      "name": "ProductAdded",
      "type": "event"
    },
    {
      "anonymous": false,
      "inputs": [
        {
          "indexed": false,
          "internalType": "string",
          "name": "message",
          "type": "string"
        }
      ],
      "name": "Success",
      "type": "event"
    },
    {
      "inputs": [
        {
          "internalType": "string",
          "name": "id",
          "type": "string"
        },
        {
          "internalType": "string",
          "name": "name",
          "type": "string"
        },
        {
          "internalType": "uint256",
          "name": "price",
          "type": "uint256"
        },
        {
          "internalType": "uint256",
          "name": "batchId",
          "type": "uint256"
        },
        {
          "internalType": "string",
          "name": "productDescription",
          "type": "string"
        },
        {
          "internalType": "string",
          "name": "manufacturerId",
          "type": "string"
        }
      ],
      "name": "addProduct",
      "outputs": [],
      "stateMutability": "nonpayable",
      "type": "function"
    },
    {
      "inputs": [
        {
          "internalType": "string",
          "name": "id",
          "type": "string"
        }
      ],
      "name": "getProductInfo",
      "outputs": [
        {
          "components": [
            {
              "internalType": "string",
              "name": "name",
              "type": "string"
            },
            {
              "internalType": "uint256",
              "name": "price",
              "type": "uint256"
            },
            {
              "internalType": "uint256",
              "name": "batchId",
              "type": "uint256"
            },
            {
              "internalType": "string",
              "name": "productDescription",
              "type": "string"
            },
            {
              "internalType": "address",
              "name": "owner",
              "type": "address"
            },
            {
              "internalType": "string",
              "name": "manufacturerId",
              "type": "string"
            }
          ],
          "internalType": "struct supplychain.Product",
          "name": "",
          "type": "tuple"
        }
      ],
      "stateMutability": "view",
      "type": "function",
      "constant": true
    },
    {
      "inputs": [
        {
          "internalType": "string",
          "name": "manufacturerId",
          "type": "string"
        }
      ],
      "name": "getProducts",
      "outputs": [
        {
          "internalType": "string[]",
          "name": "",
          "type": "string[]"
        },
        {
          "internalType": "uint256",
          "name": "",
          "type": "uint256"
        }
      ],
      "stateMutability": "view",
      "type": "function",
      "constant": true
    },
    {
      "inputs": [
        {
          "internalType": "string",
          "name": "id",
          "type": "string"
        },
        {
          "internalType": "string",
          "name": "newOwnerType",
          "type": "string"
        },
        {
          "internalType": "address",
          "name": "newOwner",
          "type": "address"
        },
        {
          "internalType": "string",
          "name": "newOwnerId",
          "type": "string"
        }
      ],
      "name": "transferOwnership",
      "outputs": [],
      "stateMutability": "nonpayable",
      "type": "function"
    },
    {
      "inputs": [
        {
          "internalType": "string",
          "name": "id",
          "type": "string"
        }
      ],
      "name": "getProductTimeline",
      "outputs": [
        {
          "internalType": "uint256[]",
          "name": "",
          "type": "uint256[]"
        },
        {
          "internalType": "string[]",
          "name": "",
          "type": "string[]"
        },
        {
          "internalType": "string[]",
          "name": "",
          "type": "string[]"
        },
        {
          "internalType": "address[]",
          "name": "",
          "type": "address[]"
        },
        {
          "internalType": "uint256[]",
          "name": "",
          "type": "uint256[]"
        }
      ],
      "stateMutability": "view",
      "type": "function",
      "constant": true
    }
  ],
  "bytecode": "0x608060405234801561001057600080fd5b50612825806100206000396000f3fe608060405234801561001057600080fd5b50600436106100575760003560e01c806327d2b6731461005c57806329e295871461007857806357ba11b0146100ac578063c2657513146100dc578063c4ec4f051461010d575b600080fd5b6100766004803603810190610071919061168c565b610129565b005b610092600480360381019061008d9190611747565b610507565b6040516100a3959493929190611a57565b60405180910390f35b6100c660048036038101906100c19190611747565b6109a0565b6040516100d39190611b64565b60405180910390f35b6100f660048036038101906100f19190611747565b610c91565b604051610104929190611b95565b60405180910390f35b61012760048036038101906101229190611bf1565b610e16565b005b600060018560405161013b9190611d2a565b908152602001604051809103902090503373ffffffffffffffffffffffffffffffffffffffff168160040160009054906101000a900473ffffffffffffffffffffffffffffffffffffffff1673ffffffffffffffffffffffffffffffffffffffff16146101dd576040517f08c379a00000000000000000000000000000000000000000000000000000000081526004016101d490611dc4565b60405180910390fd5b600073ffffffffffffffffffffffffffffffffffffffff168373ffffffffffffffffffffffffffffffffffffffff160361024c576040517f08c379a000000000000000000000000000000000000000000000000000000000815260040161024390611e30565b60405180910390fd5b6102558461117c565b610294576040517f08c379a000000000000000000000000000000000000000000000000000000000815260040161028b90611e9c565b60405180910390fd5b828160040160006101000a81548173ffffffffffffffffffffffffffffffffffffffff021916908373ffffffffffffffffffffffffffffffffffffffff16021790555060006040518060c001604052804281526020016040518060400160405280601581526020017f4f776e657273686970207472616e73666572726564000000000000000000000081525081526020013373ffffffffffffffffffffffffffffffffffffffff1681526020018573ffffffffffffffffffffffffffffffffffffffff1681526020018681526020018481525090506002866040516103799190611d2a565b90815260200160405180910390208190806001815401808255809150506001900390600052602060002090600602016000909190919091506000820151816000015560208201518160010190816103d091906120c8565b5060408201518160020160006101000a81548173ffffffffffffffffffffffffffffffffffffffff021916908373ffffffffffffffffffffffffffffffffffffffff16021790555060608201518160030160006101000a81548173ffffffffffffffffffffffffffffffffffffffff021916908373ffffffffffffffffffffffffffffffffffffffff160217905550608082015181600401908161047491906120c8565b5060a082015181600501908161048a91906120c8565b50505060038660405161049d9190611d2a565b908152602001604051809103902060016002886040516104bd9190611d2a565b9081526020016040518091039020805490506104d991906121c9565b9080600181540180825580915050600190039060005260206000200160009091909190915055505050505050565b606080606080606060006003876040516105219190611d2a565b9081526020016040518091039020905060006002886040516105439190611d2a565b908152602001604051809103902090506000818054905067ffffffffffffffff81111561057357610572611503565b5b6040519080825280602002602001820160405280156105a15781602001602082028036833780820191505090505b5090506000828054905067ffffffffffffffff8111156105c4576105c3611503565b5b6040519080825280602002602001820160405280156105f757816020015b60608152602001906001900390816105e25790505b5090506000838054905067ffffffffffffffff81111561061a57610619611503565b5b60405190808252806020026020018201604052801561064d57816020015b60608152602001906001900390816106385790505b5090506000848054905067ffffffffffffffff8111156106705761066f611503565b5b60405190808252806020026020018201604052801561069e5781602001602082028036833780820191505090505b50905060005b858054905081101561092f578581815481106106c3576106c26121fd565b5b9060005260206000209060060201600001548582815181106106e8576106e76121fd565b5b602002602001018181525050858181548110610707576107066121fd565b5b9060005260206000209060060201600101805461072390611eeb565b80601f016020809104026020016040519081016040528092919081815260200182805461074f90611eeb565b801561079c5780601f106107715761010080835404028352916020019161079c565b820191906000526020600020905b81548152906001019060200180831161077f57829003601f168201915b50505050508482815181106107b4576107b36121fd565b5b60200260200101819052508581815481106107d2576107d16121fd565b5b906000526020600020906006020160040180546107ee90611eeb565b80601f016020809104026020016040519081016040528092919081815260200182805461081a90611eeb565b80156108675780601f1061083c57610100808354040283529160200191610867565b820191906000526020600020905b81548152906001019060200180831161084a57829003601f168201915b505050505083828151811061087f5761087e6121fd565b5b602002602001018190525085818154811061089d5761089c6121fd565b5b906000526020600020906006020160030160009054906101000a900473ffffffffffffffffffffffffffffffffffffffff168282815181106108e2576108e16121fd565b5b602002602001019073ffffffffffffffffffffffffffffffffffffffff16908173ffffffffffffffffffffffffffffffffffffffff168152505080806109279061222c565b9150506106a4565b5085838383878480548060200260200160405190810160405280929190818152602001828054801561098057602002820191906000526020600020905b81548152602001906001019080831161096c575b505050505094509a509a509a509a509a5050505050505091939590929450565b6109a8611488565b60006001836040516109ba9190611d2a565b90815260200160405180910390209050600073ffffffffffffffffffffffffffffffffffffffff168160040160009054906101000a900473ffffffffffffffffffffffffffffffffffffffff1673ffffffffffffffffffffffffffffffffffffffff1603610a5d576040517f08c379a0000000000000000000000000000000000000000000000000000000008152600401610a54906122e6565b60405180910390fd5b806040518060c0016040529081600082018054610a7990611eeb565b80601f0160208091040260200160405190810160405280929190818152602001828054610aa590611eeb565b8015610af25780601f10610ac757610100808354040283529160200191610af2565b820191906000526020600020905b815481529060010190602001808311610ad557829003601f168201915b505050505081526020016001820154815260200160028201548152602001600382018054610b1f90611eeb565b80601f0160208091040260200160405190810160405280929190818152602001828054610b4b90611eeb565b8015610b985780601f10610b6d57610100808354040283529160200191610b98565b820191906000526020600020905b815481529060010190602001808311610b7b57829003601f168201915b505050505081526020016004820160009054906101000a900473ffffffffffffffffffffffffffffffffffffffff1673ffffffffffffffffffffffffffffffffffffffff1673ffffffffffffffffffffffffffffffffffffffff168152602001600582018054610c0790611eeb565b80601f0160208091040260200160405190810160405280929190818152602001828054610c3390611eeb565b8015610c805780601f10610c5557610100808354040283529160200191610c80565b820191906000526020600020905b815481529060010190602001808311610c6357829003601f168201915b505050505081525050915050919050565b6060600080600084604051610ca69190611d2a565b908152602001604051809103902090506000818054905011610cfd576040517f08c379a0000000000000000000000000000000000000000000000000000000008152600401610cf490612378565b60405180910390fd5b6000818054905067ffffffffffffffff811115610d1d57610d1c611503565b5b604051908082528060200260200182016040528015610d5057816020015b6060815260200190600190039081610d3b5790505b50905060005b8280549050811015610e0457828181548110610d7557610d746121fd565b5b9060005260206000209060060201600501610db3848381548110610d9c57610d9b6121fd565b5b906000526020600020906006020160020154611316565b604051602001610dc4929190612467565b604051602081830303815290604052828281518110610de657610de56121fd565b5b60200260200101819052508080610dfc9061222c565b915050610d56565b50808280549050935093505050915091565b600073ffffffffffffffffffffffffffffffffffffffff16600187604051610e3e9190611d2a565b908152602001604051809103902060040160009054906101000a900473ffffffffffffffffffffffffffffffffffffffff1673ffffffffffffffffffffffffffffffffffffffff1614610ec6576040517f08c379a0000000000000000000000000000000000000000000000000000000008152600401610ebd906124e2565b60405180910390fd5b6040518060c001604052808681526020018581526020018481526020018381526020013373ffffffffffffffffffffffffffffffffffffffff16815260200182815250600187604051610f199190611d2a565b90815260200160405180910390206000820151816000019081610f3c91906120c8565b5060208201518160010155604082015181600201556060820151816003019081610f6691906120c8565b5060808201518160040160006101000a81548173ffffffffffffffffffffffffffffffffffffffff021916908373ffffffffffffffffffffffffffffffffffffffff16021790555060a0820151816005019081610fc391906120c8565b50905050600081604051610fd79190611d2a565b9081526020016040518091039020600187604051610ff59190611d2a565b90815260200160405180910390209080600181540180825580915050600190039060005260206000209060060201600090919091909150600082018160000190816110409190612518565b506001820154816001015560028201548160020155600382018160030190816110699190612518565b506004820160009054906101000a900473ffffffffffffffffffffffffffffffffffffffff168160040160006101000a81548173ffffffffffffffffffffffffffffffffffffffff021916908373ffffffffffffffffffffffffffffffffffffffff160217905550600582018160050190816110e59190612518565b505050856040516110f69190611d2a565b60405180910390207fa83ae1dcffd9da4d6743fc1ddcd6c1fd58c25ae1e1ea2315f46a3b79656da0fb86868686338760405161113796959493929190612648565b60405180910390a27f166b96a382dc3abc86ba052ca9c020cfd7022d2d3059e868918a3d20779e41cc60405161116c9061270a565b60405180910390a1505050505050565b60008060405180608001604052806040518060400160405280600c81526020017f6d616e756661637475726572000000000000000000000000000000000000000081525081526020016040518060400160405280600881526020017f72657461696c657200000000000000000000000000000000000000000000000081525081526020016040518060400160405280600b81526020017f6469737472696275746f7200000000000000000000000000000000000000000081525081526020016040518060400160405280600881526020017f636f6e73756d6572000000000000000000000000000000000000000000000000815250815250905060005b600481101561130a57836040516020016112939190611d2a565b604051602081830303815290604052805190602001208282600481106112bc576112bb6121fd565b5b60200201516040516020016112d19190611d2a565b60405160208183030381529060405280519060200120036112f757600192505050611311565b80806113029061222c565b915050611279565b5060009150505b919050565b60606000820361135d576040518060400160405280600181526020017f30000000000000000000000000000000000000000000000000000000000000008152509050611483565b600082905060005b6000821461138f5780806113789061222c565b915050600a826113889190612759565b9150611365565b60008167ffffffffffffffff8111156113ab576113aa611503565b5b6040519080825280601f01601f1916602001820160405280156113dd5781602001600182028036833780820191505090505b50905060008290505b6000861461147b576001816113fb91906121c9565b90506000600a8761140c919061278a565b603061141891906127bb565b905060008160f81b905080848481518110611436576114356121fd565b5b60200101907effffffffffffffffffffffffffffffffffffffffffffffffffffffffffffff1916908160001a905350600a886114729190612759565b975050506113e6565b819450505050505b919050565b6040518060c0016040528060608152602001600081526020016000815260200160608152602001600073ffffffffffffffffffffffffffffffffffffffff168152602001606081525090565b6000604051905090565b600080fd5b600080fd5b600080fd5b600080fd5b6000601f19601f8301169050919050565b7f4e487b7100000000000000000000000000000000000000000000000000000000600052604160045260246000fd5b61153b826114f2565b810181811067ffffffffffffffff8211171561155a57611559611503565b5b80604052505050565b600061156d6114d4565b90506115798282611532565b919050565b600067ffffffffffffffff82111561159957611598611503565b5b6115a2826114f2565b9050602081019050919050565b82818337600083830152505050565b60006115d16115cc8461157e565b611563565b9050828152602081018484840111156115ed576115ec6114ed565b5b6115f88482856115af565b509392505050565b600082601f830112611615576116146114e8565b5b81356116258482602086016115be565b91505092915050565b600073ffffffffffffffffffffffffffffffffffffffff82169050919050565b60006116598261162e565b9050919050565b6116698161164e565b811461167457600080fd5b50565b60008135905061168681611660565b92915050565b600080600080608085870312156116a6576116a56114de565b5b600085013567ffffffffffffffff8111156116c4576116c36114e3565b5b6116d087828801611600565b945050602085013567ffffffffffffffff8111156116f1576116f06114e3565b5b6116fd87828801611600565b935050604061170e87828801611677565b925050606085013567ffffffffffffffff81111561172f5761172e6114e3565b5b61173b87828801611600565b91505092959194509250565b60006020828403121561175d5761175c6114de565b5b600082013567ffffffffffffffff81111561177b5761177a6114e3565b5b61178784828501611600565b91505092915050565b600081519050919050565b600082825260208201905092915050565b6000819050602082019050919050565b6000819050919050565b6117cf816117bc565b82525050565b60006117e183836117c6565b60208301905092915050565b6000602082019050919050565b600061180582611790565b61180f818561179b565b935061181a836117ac565b8060005b8381101561184b57815161183288826117d5565b975061183d836117ed565b92505060018101905061181e565b5085935050505092915050565b600081519050919050565b600082825260208201905092915050565b6000819050602082019050919050565b600081519050919050565b600082825260208201905092915050565b60005b838110156118be5780820151818401526020810190506118a3565b60008484015250505050565b60006118d582611884565b6118df818561188f565b93506118ef8185602086016118a0565b6118f8816114f2565b840191505092915050565b600061190f83836118ca565b905092915050565b6000602082019050919050565b600061192f82611858565b6119398185611863565b93508360208202850161194b85611874565b8060005b8581101561198757848403895281516119688582611903565b945061197383611917565b925060208a0199505060018101905061194f565b50829750879550505050505092915050565b600081519050919050565b600082825260208201905092915050565b6000819050602082019050919050565b6119ce8161164e565b82525050565b60006119e083836119c5565b60208301905092915050565b6000602082019050919050565b6000611a0482611999565b611a0e81856119a4565b9350611a19836119b5565b8060005b83811015611a4a578151611a3188826119d4565b9750611a3c836119ec565b925050600181019050611a1d565b5085935050505092915050565b600060a0820190508181036000830152611a7181886117fa565b90508181036020830152611a858187611924565b90508181036040830152611a998186611924565b90508181036060830152611aad81856119f9565b90508181036080830152611ac181846117fa565b90509695505050505050565b600060c0830160008301518482036000860152611aea82826118ca565b9150506020830151611aff60208601826117c6565b506040830151611b1260408601826117c6565b5060608301518482036060860152611b2a82826118ca565b9150506080830151611b3f60808601826119c5565b5060a083015184820360a0860152611b5782826118ca565b9150508091505092915050565b60006020820190508181036000830152611b7e8184611acd565b905092915050565b611b8f816117bc565b82525050565b60006040820190508181036000830152611baf8185611924565b9050611bbe6020830184611b86565b9392505050565b611bce816117bc565b8114611bd957600080fd5b50565b600081359050611beb81611bc5565b92915050565b60008060008060008060c08789031215611c0e57611c0d6114de565b5b600087013567ffffffffffffffff811115611c2c57611c2b6114e3565b5b611c3889828a01611600565b965050602087013567ffffffffffffffff811115611c5957611c586114e3565b5b611c6589828a01611600565b9550506040611c7689828a01611bdc565b9450506060611c8789828a01611bdc565b935050608087013567ffffffffffffffff811115611ca857611ca76114e3565b5b611cb489828a01611600565b92505060a087013567ffffffffffffffff811115611cd557611cd46114e3565b5b611ce189828a01611600565b9150509295509295509295565b600081905092915050565b6000611d0482611884565b611d0e8185611cee565b9350611d1e8185602086016118a0565b80840191505092915050565b6000611d368284611cf9565b915081905092915050565b600082825260208201905092915050565b7f4f6e6c79207468652070726f64756374206f776e65722063616e207472616e7360008201527f666572206f776e65727368697000000000000000000000000000000000000000602082015250565b6000611dae602d83611d41565b9150611db982611d52565b604082019050919050565b60006020820190508181036000830152611ddd81611da1565b9050919050565b7f496e76616c6964206e6577206f776e6572206164647265737300000000000000600082015250565b6000611e1a601983611d41565b9150611e2582611de4565b602082019050919050565b60006020820190508181036000830152611e4981611e0d565b9050919050565b7f496e76616c6964206e6577206f776e6572207479706500000000000000000000600082015250565b6000611e86601683611d41565b9150611e9182611e50565b602082019050919050565b60006020820190508181036000830152611eb581611e79565b9050919050565b7f4e487b7100000000000000000000000000000000000000000000000000000000600052602260045260246000fd5b60006002820490506001821680611f0357607f821691505b602082108103611f1657611f15611ebc565b5b50919050565b60008190508160005260206000209050919050565b60006020601f8301049050919050565b600082821b905092915050565b600060088302611f7e7fffffffffffffffffffffffffffffffffffffffffffffffffffffffffffffffff82611f41565b611f888683611f41565b95508019841693508086168417925050509392505050565b6000819050919050565b6000611fc5611fc0611fbb846117bc565b611fa0565b6117bc565b9050919050565b6000819050919050565b611fdf83611faa565b611ff3611feb82611fcc565b848454611f4e565b825550505050565b600090565b612008611ffb565b612013818484611fd6565b505050565b5b818110156120375761202c600082612000565b600181019050612019565b5050565b601f82111561207c5761204d81611f1c565b61205684611f31565b81016020851015612065578190505b61207961207185611f31565b830182612018565b50505b505050565b600082821c905092915050565b600061209f60001984600802612081565b1980831691505092915050565b60006120b8838361208e565b9150826002028217905092915050565b6120d182611884565b67ffffffffffffffff8111156120ea576120e9611503565b5b6120f48254611eeb565b6120ff82828561203b565b600060209050601f8311600181146121325760008415612120578287015190505b61212a85826120ac565b865550612192565b601f19841661214086611f1c565b60005b8281101561216857848901518255600182019150602085019450602081019050612143565b868310156121855784890151612181601f89168261208e565b8355505b6001600288020188555050505b505050505050565b7f4e487b7100000000000000000000000000000000000000000000000000000000600052601160045260246000fd5b60006121d4826117bc565b91506121df836117bc565b92508282039050818111156121f7576121f661219a565b5b92915050565b7f4e487b7100000000000000000000000000000000000000000000000000000000600052603260045260246000fd5b6000612237826117bc565b91507fffffffffffffffffffffffffffffffffffffffffffffffffffffffffffffffff82036122695761226861219a565b5b600182019050919050565b7f50726f647563742077697468207468697320494420646f6573206e6f7420657860008201527f6973740000000000000000000000000000000000000000000000000000000000602082015250565b60006122d0602383611d41565b91506122db82612274565b604082019050919050565b600060208201905081810360008301526122ff816122c3565b9050919050565b7f4d616e75666163747572657220646f6573206e6f74206861766520616e79207060008201527f726f647563747300000000000000000000000000000000000000000000000000602082015250565b6000612362602783611d41565b915061236d82612306565b604082019050919050565b6000602082019050818103600083015261239181612355565b9050919050565b600081546123a581611eeb565b6123af8186611cee565b945060018216600081146123ca57600181146123df57612412565b60ff1983168652811515820286019350612412565b6123e885611f1c565b60005b8381101561240a578154818901526001820191506020810190506123eb565b838801955050505b50505092915050565b7f70726f6475000000000000000000000000000000000000000000000000000000600082015250565b6000612451600583611cee565b915061245c8261241b565b600582019050919050565b60006124738285612398565b915061247e82612444565b915061248a8284611cf9565b91508190509392505050565b7f50726f6475637420494420616c72656164792065786973747300000000000000600082015250565b60006124cc601983611d41565b91506124d782612496565b602082019050919050565b600060208201905081810360008301526124fb816124bf565b9050919050565b60008154905061251181611eeb565b9050919050565b8181036125265750506125fe565b61252f82612502565b67ffffffffffffffff81111561254857612547611503565b5b6125528254611eeb565b61255d82828561203b565b6000601f83116001811461258c576000841561257a578287015490505b61258485826120ac565b8655506125f7565b601f19841661259a87611f1c565b96506125a586611f1c565b60005b828110156125cd578489015482556001820191506001850194506020810190506125a8565b868310156125ea57848901546125e6601f89168261208e565b8355505b6001600288020188555050505b5050505050505b565b600061260b82611884565b6126158185611d41565b93506126258185602086016118a0565b61262e816114f2565b840191505092915050565b6126428161164e565b82525050565b600060c08201905081810360008301526126628189612600565b90506126716020830188611b86565b61267e6040830187611b86565b81810360608301526126908186612600565b905061269f6080830185612639565b81810360a08301526126b18184612600565b9050979650505050505050565b7f50726f64756374206164646564207375636365737366756c6c792e0000000000600082015250565b60006126f4601b83611d41565b91506126ff826126be565b602082019050919050565b60006020820190508181036000830152612723816126e7565b9050919050565b7f4e487b7100000000000000000000000000000000000000000000000000000000600052601260045260246000fd5b6000612764826117bc565b915061276f836117bc565b92508261277f5761277e61272a565b5b828204905092915050565b6000612795826117bc565b91506127a0836117bc565b9250826127b0576127af61272a565b5b828206905092915050565b60006127c6826117bc565b91506127d1836117bc565b92508282019050808211156127e9576127e861219a565b5b9291505056fea264697066735822122044450bad817ccf028689593c221446b698682a6854fd1ab9c433b83ea5af865864736f6c63430008130033",
  "immutableReferences": {},
  "source": "//SPDX-License-Identifier: MIT\r\n\r\npragma solidity ^0.8.0;\r\n\r\ncontract supplychain {\r\n    struct Product {\r\n        string name;\r\n        uint price;\r\n        uint batchId;\r\n        string productDescription;\r\n        address owner;\r\n        string manufacturerId;\r\n    }\r\n\r\n    struct ProductEvent {\r\n        uint timestamp;\r\n        string description;\r\n        address from;\r\n        address to;\r\n        string newOwnerType;\r\n        string newOwnerId;\r\n    }\r\n\r\n    mapping(string => Product[]) manufacturerProducts; // stores all the products for each manufacturer\r\n    mapping(string => Product) products; // stores all the products in the chain\r\n    mapping(string => ProductEvent[]) productEvents; // stores the timeline for each product\r\n    mapping(string => uint[]) productTimelineKeys; // stores the timeline keys for each product\r\n    event ProductAdded(string indexed id, string name, uint price, uint batchId, string productDescription, address owner, string manufacturerId);\r\n    event Success(string message);\r\n\r\n    function addProduct(string memory id, string memory name, uint price, uint batchId, string memory productDescription, string memory manufacturerId) public {\r\n        require(products[id].owner == address(0), \"Product ID already exists\");\r\n        products[id] = Product(name, price, batchId, productDescription, msg.sender, manufacturerId);\r\n        manufacturerProducts[manufacturerId].push(products[id]);\r\n        emit ProductAdded(id, name, price, batchId, productDescription, msg.sender, manufacturerId);\r\n        emit Success(\"Product added successfully.\");\r\n    }\r\n\r\n    function getProductInfo(string memory id) public view returns (Product memory) {\r\n        Product storage product = products[id];\r\n        require(product.owner != address(0), \"Product with this ID does not exist\");\r\n        return product;\r\n    }\r\n\r\n    function getProducts(string memory manufacturerId) public view returns (string[] memory, uint) {\r\n    Product[] storage productList = manufacturerProducts[manufacturerId];\r\n    require(productList.length > 0, \"Manufacturer does not have any products\");\r\n\r\n    string[] memory productIds = new string[](productList.length);\r\n    for (uint i = 0; i < productList.length; i++) {\r\n        productIds[i] = string(abi.encodePacked(productList[i].manufacturerId, \"produ\", uint2str(productList[i].batchId)));\r\n    }\r\n\r\n    return (productIds, productList.length);\r\n    }\r\n\r\n\r\n    function uint2str(uint256 _i) private pure returns (string memory) {\r\n        if (_i == 0) {\r\n            return \"0\";\r\n        }\r\n        uint256 j = _i;\r\n        uint256 length;\r\n        while (j != 0) {\r\n            length++;\r\n            j /= 10;\r\n        }\r\n        bytes memory bstr = new bytes(length);\r\n        uint256 k = length;\r\n        while (_i != 0) {\r\n            k = k-1;\r\n            uint8 temp = uint8(48 + _i % 10);\r\n            bytes1 b1 = bytes1(temp);\r\n            bstr[k] = b1;\r\n            _i /= 10;\r\n        }\r\n        return string(bstr);\r\n    }\r\n\r\n\r\n    function transferOwnership(string memory id, string memory newOwnerType, address newOwner, string memory newOwnerId) public {\r\n        Product storage product = products[id];\r\n        require(product.owner == msg.sender, \"Only the product owner can transfer ownership\");\r\n        require(newOwner != address(0), \"Invalid new owner address\");\r\n        require(isValidNewOwnerType(newOwnerType), \"Invalid new owner type\");\r\n        product.owner = newOwner;\r\n\r\n        // Create new ProductEvent\r\n        ProductEvent memory eventToAdd = ProductEvent({\r\n            timestamp: block.timestamp,\r\n            description: \"Ownership transferred\",\r\n            from: msg.sender,\r\n            to: newOwner,\r\n            newOwnerType: newOwnerType,\r\n            newOwnerId: newOwnerId\r\n        });\r\n\r\n        // Add ProductEvent to timeline\r\n        productEvents[id].push(eventToAdd);\r\n        productTimelineKeys[id].push(productEvents[id].length - 1);\r\n    }\r\n\r\n    function getProductTimeline(string memory id) public view returns (uint[] memory, string[] memory, string[] memory, address[] memory, uint[] memory) {\r\n    uint[] storage timelineKeys = productTimelineKeys[id];\r\n    ProductEvent[] storage timelineEvents = productEvents[id];\r\n\r\n    uint[] memory timestamps = new uint[](timelineEvents.length);\r\n    string[] memory descriptions = new string[](timelineEvents.length);\r\n    string[] memory newOwnerTypes = new string[](timelineEvents.length);\r\n    address[] memory owners = new address[](timelineEvents.length);\r\n\r\n    for (uint i = 0; i < timelineEvents.length; i++) {\r\n        timestamps[i] = timelineEvents[i].timestamp;\r\n        descriptions[i] = timelineEvents[i].description;\r\n        newOwnerTypes[i] = timelineEvents[i].newOwnerType;\r\n        owners[i] = timelineEvents[i].to;\r\n    }\r\n\r\n    return (timelineKeys, descriptions, newOwnerTypes, owners, timestamps);\r\n    }\r\n\r\n\r\n    function isValidNewOwnerType(string memory newOwnerType) private pure returns (bool) {\r\n        string[4] memory validNewOwnerTypes = [\"manufacturer\",\"retailer\", \"distributor\", \"consumer\"];\r\n        for (uint i = 0; i < validNewOwnerTypes.length; i++) {\r\n            if (keccak256(abi.encodePacked(validNewOwnerTypes[i])) == keccak256(abi.encodePacked(newOwnerType))) {\r\n                return true;\r\n            }\r\n        }\r\n        return false;\r\n    }\r\n    }",
  "sourcePath": "C:\\Users\\user\\Desktop\\GIT_REPOS\\provenX\\backend\\contracts\\supplychain.sol",
  "compiler": {
    "name": "solc",
    "version": "0.8.19+commit.7dd6d404.Emscripten.clang"
  },
  "schemaVersion": "3.4.13",
  "updatedAt": "2023-04-12T17:10:26.541Z",
  "networkType": "ethereum",
  "devdoc": {
    "kind": "dev",
    "methods": {},
    "version": 1
  },
  "userdoc": {
    "kind": "user",
    "methods": {},
    "version": 1
  }
}