{
  "contractName": "Manufacturer",
  "abi": [
    {
      "anonymous": false,
      "inputs": [
        {
          "indexed": true,
          "internalType": "string",
          "name": "id",
          "type": "string"
        },
        {
          "indexed": false,
          "internalType": "string",
          "name": "name",
          "type": "string"
        },
        {
          "indexed": false,
          "internalType": "uint256",
          "name": "price",
          "type": "uint256"
        },
        {
          "indexed": false,
          "internalType": "uint256",
          "name": "batchId",
          "type": "uint256"
        },
        {
          "indexed": false,
          "internalType": "string",
          "name": "productDescription",
          "type": "string"
        },
        {
          "indexed": false,
          "internalType": "address",
          "name": "owner",
          "type": "address"
        }
      ],
      "name": "ProductAdded",
      "type": "event"
    },
    {
      "anonymous": false,
      "inputs": [
        {
          "indexed": false,
          "internalType": "string",
          "name": "message",
          "type": "string"
        }
      ],
      "name": "Success",
      "type": "event"
    },
    {
      "inputs": [
        {
          "internalType": "string",
          "name": "id",
          "type": "string"
        },
        {
          "internalType": "string",
          "name": "name",
          "type": "string"
        },
        {
          "internalType": "uint256",
          "name": "price",
          "type": "uint256"
        },
        {
          "internalType": "uint256",
          "name": "batchId",
          "type": "uint256"
        },
        {
          "internalType": "string",
          "name": "productDescription",
          "type": "string"
        }
      ],
      "name": "addProduct",
      "outputs": [],
      "stateMutability": "nonpayable",
      "type": "function"
    },
    {
      "inputs": [
        {
          "internalType": "string",
          "name": "id",
          "type": "string"
        }
      ],
      "name": "getProductInfo",
      "outputs": [
        {
          "components": [
            {
              "internalType": "string",
              "name": "name",
              "type": "string"
            },
            {
              "internalType": "uint256",
              "name": "price",
              "type": "uint256"
            },
            {
              "internalType": "uint256",
              "name": "batchId",
              "type": "uint256"
            },
            {
              "internalType": "string",
              "name": "productDescription",
              "type": "string"
            },
            {
              "internalType": "address",
              "name": "owner",
              "type": "address"
            }
          ],
          "internalType": "struct Manufacturer.Product",
          "name": "",
          "type": "tuple"
        }
      ],
      "stateMutability": "view",
      "type": "function"
    },
    {
      "inputs": [
        {
          "internalType": "string",
          "name": "id",
          "type": "string"
        },
        {
          "internalType": "string",
          "name": "newOwnerType",
          "type": "string"
        },
        {
          "internalType": "address",
          "name": "newOwner",
          "type": "address"
        },
        {
          "internalType": "string",
          "name": "newOwnerId",
          "type": "string"
        }
      ],
      "name": "transferOwnership",
      "outputs": [],
      "stateMutability": "nonpayable",
      "type": "function"
    },
    {
      "inputs": [
        {
          "internalType": "string",
          "name": "id",
          "type": "string"
        }
      ],
      "name": "getProductTimeline",
      "outputs": [
        {
          "internalType": "uint256[]",
          "name": "",
          "type": "uint256[]"
        },
        {
          "internalType": "string[]",
          "name": "",
          "type": "string[]"
        },
        {
          "internalType": "string[]",
          "name": "",
          "type": "string[]"
        },
        {
          "internalType": "address[]",
          "name": "",
          "type": "address[]"
        },
        {
          "internalType": "uint256[]",
          "name": "",
          "type": "uint256[]"
        }
      ],
      "stateMutability": "view",
      "type": "function"
    }
  ],
  "bytecode": "0x608060405234801561001057600080fd5b50611f36806100206000396000f3fe608060405234801561001057600080fd5b506004361061004c5760003560e01c806327d2b6731461005157806329e295871461006d57806357ba11b0146100a15780636daf0fbb146100d1575b600080fd5b61006b6004803603810190610066919061117d565b6100ed565b005b61008760048036038101906100829190611238565b6104c9565b604051610098959493929190611548565b60405180910390f35b6100bb60048036038101906100b69190611238565b610962565b6040516100c8919061163b565b60405180910390f35b6100eb60048036038101906100e69190611689565b610bc0565b005b600080856040516100fe9190611794565b908152602001604051809103902090503373ffffffffffffffffffffffffffffffffffffffff168160040160009054906101000a900473ffffffffffffffffffffffffffffffffffffffff1673ffffffffffffffffffffffffffffffffffffffff16146101a0576040517f08c379a00000000000000000000000000000000000000000000000000000000081526004016101979061182e565b60405180910390fd5b600073ffffffffffffffffffffffffffffffffffffffff168373ffffffffffffffffffffffffffffffffffffffff160361020f576040517f08c379a00000000000000000000000000000000000000000000000000000000081526004016102069061189a565b60405180910390fd5b61021884610de6565b610257576040517f08c379a000000000000000000000000000000000000000000000000000000000815260040161024e90611906565b60405180910390fd5b828160040160006101000a81548173ffffffffffffffffffffffffffffffffffffffff021916908373ffffffffffffffffffffffffffffffffffffffff16021790555060006040518060c001604052804281526020016040518060400160405280601581526020017f4f776e657273686970207472616e73666572726564000000000000000000000081525081526020013373ffffffffffffffffffffffffffffffffffffffff1681526020018573ffffffffffffffffffffffffffffffffffffffff16815260200186815260200184815250905060018660405161033c9190611794565b90815260200160405180910390208190806001815401808255809150506001900390600052602060002090600602016000909190919091506000820151816000015560208201518160010190816103939190611b32565b5060408201518160020160006101000a81548173ffffffffffffffffffffffffffffffffffffffff021916908373ffffffffffffffffffffffffffffffffffffffff16021790555060608201518160030160006101000a81548173ffffffffffffffffffffffffffffffffffffffff021916908373ffffffffffffffffffffffffffffffffffffffff16021790555060808201518160040190816104379190611b32565b5060a082015181600501908161044d9190611b32565b5050506002866040516104609190611794565b90815260200160405180910390206001808860405161047f9190611794565b90815260200160405180910390208054905061049b9190611c33565b9080600181540180825580915050600190039060005260206000200160009091909190915055505050505050565b606080606080606060006002876040516104e39190611794565b9081526020016040518091039020905060006001886040516105059190611794565b908152602001604051809103902090506000818054905067ffffffffffffffff81111561053557610534610ff4565b5b6040519080825280602002602001820160405280156105635781602001602082028036833780820191505090505b5090506000828054905067ffffffffffffffff81111561058657610585610ff4565b5b6040519080825280602002602001820160405280156105b957816020015b60608152602001906001900390816105a45790505b5090506000838054905067ffffffffffffffff8111156105dc576105db610ff4565b5b60405190808252806020026020018201604052801561060f57816020015b60608152602001906001900390816105fa5790505b5090506000848054905067ffffffffffffffff81111561063257610631610ff4565b5b6040519080825280602002602001820160405280156106605781602001602082028036833780820191505090505b50905060005b85805490508110156108f15785818154811061068557610684611c67565b5b9060005260206000209060060201600001548582815181106106aa576106a9611c67565b5b6020026020010181815250508581815481106106c9576106c8611c67565b5b906000526020600020906006020160010180546106e590611955565b80601f016020809104026020016040519081016040528092919081815260200182805461071190611955565b801561075e5780601f106107335761010080835404028352916020019161075e565b820191906000526020600020905b81548152906001019060200180831161074157829003601f168201915b505050505084828151811061077657610775611c67565b5b602002602001018190525085818154811061079457610793611c67565b5b906000526020600020906006020160040180546107b090611955565b80601f01602080910402602001604051908101604052809291908181526020018280546107dc90611955565b80156108295780601f106107fe57610100808354040283529160200191610829565b820191906000526020600020905b81548152906001019060200180831161080c57829003601f168201915b505050505083828151811061084157610840611c67565b5b602002602001018190525085818154811061085f5761085e611c67565b5b906000526020600020906006020160030160009054906101000a900473ffffffffffffffffffffffffffffffffffffffff168282815181106108a4576108a3611c67565b5b602002602001019073ffffffffffffffffffffffffffffffffffffffff16908173ffffffffffffffffffffffffffffffffffffffff168152505080806108e990611c96565b915050610666565b5085838383878480548060200260200160405190810160405280929190818152602001828054801561094257602002820191906000526020600020905b81548152602001906001019080831161092e575b505050505094509a509a509a509a509a5050505050505091939590929450565b61096a610f80565b6000808360405161097b9190611794565b90815260200160405180910390209050600073ffffffffffffffffffffffffffffffffffffffff168160040160009054906101000a900473ffffffffffffffffffffffffffffffffffffffff1673ffffffffffffffffffffffffffffffffffffffff1603610a1e576040517f08c379a0000000000000000000000000000000000000000000000000000000008152600401610a1590611d50565b60405180910390fd5b806040518060a0016040529081600082018054610a3a90611955565b80601f0160208091040260200160405190810160405280929190818152602001828054610a6690611955565b8015610ab35780601f10610a8857610100808354040283529160200191610ab3565b820191906000526020600020905b815481529060010190602001808311610a9657829003601f168201915b505050505081526020016001820154815260200160028201548152602001600382018054610ae090611955565b80601f0160208091040260200160405190810160405280929190818152602001828054610b0c90611955565b8015610b595780601f10610b2e57610100808354040283529160200191610b59565b820191906000526020600020905b815481529060010190602001808311610b3c57829003601f168201915b505050505081526020016004820160009054906101000a900473ffffffffffffffffffffffffffffffffffffffff1673ffffffffffffffffffffffffffffffffffffffff1673ffffffffffffffffffffffffffffffffffffffff1681525050915050919050565b600073ffffffffffffffffffffffffffffffffffffffff16600086604051610be89190611794565b908152602001604051809103902060040160009054906101000a900473ffffffffffffffffffffffffffffffffffffffff1673ffffffffffffffffffffffffffffffffffffffff1614610c70576040517f08c379a0000000000000000000000000000000000000000000000000000000008152600401610c6790611dbc565b60405180910390fd5b6040518060a001604052808581526020018481526020018381526020018281526020013373ffffffffffffffffffffffffffffffffffffffff16815250600086604051610cbd9190611794565b90815260200160405180910390206000820151816000019081610ce09190611b32565b5060208201518160010155604082015181600201556060820151816003019081610d0a9190611b32565b5060808201518160040160006101000a81548173ffffffffffffffffffffffffffffffffffffffff021916908373ffffffffffffffffffffffffffffffffffffffff16021790555090505084604051610d639190611794565b60405180910390207f333628fa096cb9e6b3c6f228b8a0d34442acebb6d5301d4a02de8a99462ce5508585858533604051610da2959493929190611e33565b60405180910390a27f166b96a382dc3abc86ba052ca9c020cfd7022d2d3059e868918a3d20779e41cc604051610dd790611ee0565b60405180910390a15050505050565b60008060405180608001604052806040518060400160405280600c81526020017f6d616e756661637475726572000000000000000000000000000000000000000081525081526020016040518060400160405280600881526020017f72657461696c657200000000000000000000000000000000000000000000000081525081526020016040518060400160405280600b81526020017f6469737472696275746f7200000000000000000000000000000000000000000081525081526020016040518060400160405280600881526020017f636f6e73756d6572000000000000000000000000000000000000000000000000815250815250905060005b6004811015610f745783604051602001610efd9190611794565b60405160208183030381529060405280519060200120828260048110610f2657610f25611c67565b5b6020020151604051602001610f3b9190611794565b6040516020818303038152906040528051906020012003610f6157600192505050610f7b565b8080610f6c90611c96565b915050610ee3565b5060009150505b919050565b6040518060a0016040528060608152602001600081526020016000815260200160608152602001600073ffffffffffffffffffffffffffffffffffffffff1681525090565b6000604051905090565b600080fd5b600080fd5b600080fd5b600080fd5b6000601f19601f8301169050919050565b7f4e487b7100000000000000000000000000000000000000000000000000000000600052604160045260246000fd5b61102c82610fe3565b810181811067ffffffffffffffff8211171561104b5761104a610ff4565b5b80604052505050565b600061105e610fc5565b905061106a8282611023565b919050565b600067ffffffffffffffff82111561108a57611089610ff4565b5b61109382610fe3565b9050602081019050919050565b82818337600083830152505050565b60006110c26110bd8461106f565b611054565b9050828152602081018484840111156110de576110dd610fde565b5b6110e98482856110a0565b509392505050565b600082601f83011261110657611105610fd9565b5b81356111168482602086016110af565b91505092915050565b600073ffffffffffffffffffffffffffffffffffffffff82169050919050565b600061114a8261111f565b9050919050565b61115a8161113f565b811461116557600080fd5b50565b60008135905061117781611151565b92915050565b6000806000806080858703121561119757611196610fcf565b5b600085013567ffffffffffffffff8111156111b5576111b4610fd4565b5b6111c1878288016110f1565b945050602085013567ffffffffffffffff8111156111e2576111e1610fd4565b5b6111ee878288016110f1565b93505060406111ff87828801611168565b925050606085013567ffffffffffffffff8111156112205761121f610fd4565b5b61122c878288016110f1565b91505092959194509250565b60006020828403121561124e5761124d610fcf565b5b600082013567ffffffffffffffff81111561126c5761126b610fd4565b5b611278848285016110f1565b91505092915050565b600081519050919050565b600082825260208201905092915050565b6000819050602082019050919050565b6000819050919050565b6112c0816112ad565b82525050565b60006112d283836112b7565b60208301905092915050565b6000602082019050919050565b60006112f682611281565b611300818561128c565b935061130b8361129d565b8060005b8381101561133c57815161132388826112c6565b975061132e836112de565b92505060018101905061130f565b5085935050505092915050565b600081519050919050565b600082825260208201905092915050565b6000819050602082019050919050565b600081519050919050565b600082825260208201905092915050565b60005b838110156113af578082015181840152602081019050611394565b60008484015250505050565b60006113c682611375565b6113d08185611380565b93506113e0818560208601611391565b6113e981610fe3565b840191505092915050565b600061140083836113bb565b905092915050565b6000602082019050919050565b600061142082611349565b61142a8185611354565b93508360208202850161143c85611365565b8060005b85811015611478578484038952815161145985826113f4565b945061146483611408565b925060208a01995050600181019050611440565b50829750879550505050505092915050565b600081519050919050565b600082825260208201905092915050565b6000819050602082019050919050565b6114bf8161113f565b82525050565b60006114d183836114b6565b60208301905092915050565b6000602082019050919050565b60006114f58261148a565b6114ff8185611495565b935061150a836114a6565b8060005b8381101561153b57815161152288826114c5565b975061152d836114dd565b92505060018101905061150e565b5085935050505092915050565b600060a082019050818103600083015261156281886112eb565b905081810360208301526115768187611415565b9050818103604083015261158a8186611415565b9050818103606083015261159e81856114ea565b905081810360808301526115b281846112eb565b90509695505050505050565b600060a08301600083015184820360008601526115db82826113bb565b91505060208301516115f060208601826112b7565b50604083015161160360408601826112b7565b506060830151848203606086015261161b82826113bb565b915050608083015161163060808601826114b6565b508091505092915050565b6000602082019050818103600083015261165581846115be565b905092915050565b611666816112ad565b811461167157600080fd5b50565b6000813590506116838161165d565b92915050565b600080600080600060a086880312156116a5576116a4610fcf565b5b600086013567ffffffffffffffff8111156116c3576116c2610fd4565b5b6116cf888289016110f1565b955050602086013567ffffffffffffffff8111156116f0576116ef610fd4565b5b6116fc888289016110f1565b945050604061170d88828901611674565b935050606061171e88828901611674565b925050608086013567ffffffffffffffff81111561173f5761173e610fd4565b5b61174b888289016110f1565b9150509295509295909350565b600081905092915050565b600061176e82611375565b6117788185611758565b9350611788818560208601611391565b80840191505092915050565b60006117a08284611763565b915081905092915050565b600082825260208201905092915050565b7f4f6e6c79207468652070726f64756374206f776e65722063616e207472616e7360008201527f666572206f776e65727368697000000000000000000000000000000000000000602082015250565b6000611818602d836117ab565b9150611823826117bc565b604082019050919050565b600060208201905081810360008301526118478161180b565b9050919050565b7f496e76616c6964206e6577206f776e6572206164647265737300000000000000600082015250565b60006118846019836117ab565b915061188f8261184e565b602082019050919050565b600060208201905081810360008301526118b381611877565b9050919050565b7f496e76616c6964206e6577206f776e6572207479706500000000000000000000600082015250565b60006118f06016836117ab565b91506118fb826118ba565b602082019050919050565b6000602082019050818103600083015261191f816118e3565b9050919050565b7f4e487b7100000000000000000000000000000000000000000000000000000000600052602260045260246000fd5b6000600282049050600182168061196d57607f821691505b6020821081036119805761197f611926565b5b50919050565b60008190508160005260206000209050919050565b60006020601f8301049050919050565b600082821b905092915050565b6000600883026119e87fffffffffffffffffffffffffffffffffffffffffffffffffffffffffffffffff826119ab565b6119f286836119ab565b95508019841693508086168417925050509392505050565b6000819050919050565b6000611a2f611a2a611a25846112ad565b611a0a565b6112ad565b9050919050565b6000819050919050565b611a4983611a14565b611a5d611a5582611a36565b8484546119b8565b825550505050565b600090565b611a72611a65565b611a7d818484611a40565b505050565b5b81811015611aa157611a96600082611a6a565b600181019050611a83565b5050565b601f821115611ae657611ab781611986565b611ac08461199b565b81016020851015611acf578190505b611ae3611adb8561199b565b830182611a82565b50505b505050565b600082821c905092915050565b6000611b0960001984600802611aeb565b1980831691505092915050565b6000611b228383611af8565b9150826002028217905092915050565b611b3b82611375565b67ffffffffffffffff811115611b5457611b53610ff4565b5b611b5e8254611955565b611b69828285611aa5565b600060209050601f831160018114611b9c5760008415611b8a578287015190505b611b948582611b16565b865550611bfc565b601f198416611baa86611986565b60005b82811015611bd257848901518255600182019150602085019450602081019050611bad565b86831015611bef5784890151611beb601f891682611af8565b8355505b6001600288020188555050505b505050505050565b7f4e487b7100000000000000000000000000000000000000000000000000000000600052601160045260246000fd5b6000611c3e826112ad565b9150611c49836112ad565b9250828203905081811115611c6157611c60611c04565b5b92915050565b7f4e487b7100000000000000000000000000000000000000000000000000000000600052603260045260246000fd5b6000611ca1826112ad565b91507fffffffffffffffffffffffffffffffffffffffffffffffffffffffffffffffff8203611cd357611cd2611c04565b5b600182019050919050565b7f50726f647563742077697468207468697320494420646f6573206e6f7420657860008201527f6973740000000000000000000000000000000000000000000000000000000000602082015250565b6000611d3a6023836117ab565b9150611d4582611cde565b604082019050919050565b60006020820190508181036000830152611d6981611d2d565b9050919050565b7f50726f6475637420494420616c72656164792065786973747300000000000000600082015250565b6000611da66019836117ab565b9150611db182611d70565b602082019050919050565b60006020820190508181036000830152611dd581611d99565b9050919050565b6000611de782611375565b611df181856117ab565b9350611e01818560208601611391565b611e0a81610fe3565b840191505092915050565b611e1e816112ad565b82525050565b611e2d8161113f565b82525050565b600060a0820190508181036000830152611e4d8188611ddc565b9050611e5c6020830187611e15565b611e696040830186611e15565b8181036060830152611e7b8185611ddc565b9050611e8a6080830184611e24565b9695505050505050565b7f50726f64756374206164646564207375636365737366756c6c792e0000000000600082015250565b6000611eca601b836117ab565b9150611ed582611e94565b602082019050919050565b60006020820190508181036000830152611ef981611ebd565b905091905056fea26469706673582212200b51bd4dce3b3e8f680db63b84c08030420239ff905847e5fd2be9ecf596098d64736f6c63430008130033",
  "immutableReferences": {},
  "source": "//SPDX-License-Identifier: MIT\r\n\r\npragma solidity ^0.8.0;\r\n\r\ncontract Manufacturer {\r\n    struct Product {\r\n        string name;\r\n        uint price;\r\n        uint batchId;\r\n        string productDescription;\r\n        address owner;\r\n    }\r\n\r\n    struct ProductEvent {\r\n        uint timestamp;\r\n        string description;\r\n        address from;\r\n        address to;\r\n        string newOwnerType;\r\n        string newOwnerId;\r\n    }\r\n\r\n\r\n    mapping(string => Product) products; // stores all the products in the chain\r\n    mapping(string => ProductEvent[]) productEvents; // stores the timeline for each product\r\n    mapping(string => uint[]) productTimelineKeys; // stores the timeline keys for each product\r\n    event ProductAdded(string indexed id, string name, uint price, uint batchId, string productDescription, address owner);\r\n    event Success(string message);\r\n\r\n\r\n    function addProduct(string memory id, string memory name, uint price, uint batchId, string memory productDescription) public {\r\n        require(products[id].owner == address(0), \"Product ID already exists\");\r\n        products[id] = Product(name, price, batchId, productDescription, msg.sender);\r\n        emit ProductAdded(id, name, price, batchId, productDescription, msg.sender);\r\n        emit Success(\"Product added successfully.\");\r\n    }\r\n\r\n\r\n    function getProductInfo(string memory id) public view returns (Product memory) {\r\n    Product storage product = products[id];\r\n    require(product.owner != address(0), \"Product with this ID does not exist\");\r\n    return product;\r\n    }\r\n\r\n\r\n    function transferOwnership(string memory id, string memory newOwnerType, address newOwner, string memory newOwnerId) public {\r\n    Product storage product = products[id];\r\n    require(product.owner == msg.sender, \"Only the product owner can transfer ownership\");\r\n    require(newOwner != address(0), \"Invalid new owner address\");\r\n    require(isValidNewOwnerType(newOwnerType), \"Invalid new owner type\");\r\n    product.owner = newOwner;\r\n    \r\n    // Create new ProductEvent\r\n    ProductEvent memory eventToAdd = ProductEvent({\r\n        timestamp: block.timestamp,\r\n        description: \"Ownership transferred\",\r\n        from: msg.sender,\r\n        to: newOwner,\r\n        newOwnerType: newOwnerType,\r\n        newOwnerId: newOwnerId\r\n    });\r\n    \r\n    // Add ProductEvent to timeline\r\n    productEvents[id].push(eventToAdd);\r\n    productTimelineKeys[id].push(productEvents[id].length - 1);\r\n    }\r\n\r\n\r\n  function getProductTimeline(string memory id) public view returns (uint[] memory, string[] memory, string[] memory, address[] memory, uint[] memory) {\r\n    uint[] storage timelineKeys = productTimelineKeys[id];\r\n    ProductEvent[] storage timelineEvents = productEvents[id];\r\n\r\n    uint[] memory timestamps = new uint[](timelineEvents.length);\r\n    string[] memory descriptions = new string[](timelineEvents.length);\r\n    string[] memory newOwnerTypes = new string[](timelineEvents.length);\r\n    address[] memory owners = new address[](timelineEvents.length);\r\n\r\n    for (uint i = 0; i < timelineEvents.length; i++) {\r\n        timestamps[i] = timelineEvents[i].timestamp;\r\n        descriptions[i] = timelineEvents[i].description;\r\n        newOwnerTypes[i] = timelineEvents[i].newOwnerType;\r\n        owners[i] = timelineEvents[i].to;\r\n    }\r\n\r\n    return (timelineKeys, descriptions, newOwnerTypes, owners, timestamps);\r\n    }\r\n\r\n\r\n    function isValidNewOwnerType(string memory newOwnerType) private pure returns (bool) {\r\n        string[4] memory validNewOwnerTypes = [\"manufacturer\",\"retailer\", \"distributor\", \"consumer\"];\r\n        for (uint i = 0; i < validNewOwnerTypes.length; i++) {\r\n            if (keccak256(abi.encodePacked(validNewOwnerTypes[i])) == keccak256(abi.encodePacked(newOwnerType))) {\r\n                return true;\r\n            }\r\n        }\r\n        return false;\r\n    }\r\n}",
  "sourcePath": "C:\\Users\\user\\Desktop\\GIT_REPOS\\hack-a-nest\\contracts\\supplychain.sol",
  "compiler": {
    "name": "solc",
    "version": "0.8.19+commit.7dd6d404.Emscripten.clang"
  },
  "schemaVersion": "3.4.13",
  "updatedAt": "2023-03-25T12:05:21.656Z",
  "devdoc": {
    "kind": "dev",
    "methods": {},
    "version": 1
  },
  "userdoc": {
    "kind": "user",
    "methods": {},
    "version": 1
  }
}