{
  "contractName": "Products",
  "abi": [
    {
      "inputs": [
        {
          "internalType": "uint256",
          "name": "",
          "type": "uint256"
        }
      ],
      "name": "products",
      "outputs": [
        {
          "internalType": "string",
          "name": "id",
          "type": "string"
        },
        {
          "internalType": "string",
          "name": "name",
          "type": "string"
        },
        {
          "internalType": "uint256",
          "name": "price",
          "type": "uint256"
        }
      ],
      "stateMutability": "view",
      "type": "function"
    },
    {
      "inputs": [
        {
          "internalType": "string",
          "name": "id",
          "type": "string"
        },
        {
          "internalType": "string",
          "name": "name",
          "type": "string"
        },
        {
          "internalType": "uint256",
          "name": "price",
          "type": "uint256"
        }
      ],
      "name": "addProduct",
      "outputs": [],
      "stateMutability": "nonpayable",
      "type": "function"
    },
    {
      "inputs": [],
      "name": "getProductsCount",
      "outputs": [
        {
          "internalType": "uint256",
          "name": "",
          "type": "uint256"
        }
      ],
      "stateMutability": "view",
      "type": "function"
    },
    {
      "inputs": [
        {
          "internalType": "uint256",
          "name": "index",
          "type": "uint256"
        }
      ],
      "name": "getProduct",
      "outputs": [
        {
          "internalType": "string",
          "name": "id",
          "type": "string"
        },
        {
          "internalType": "string",
          "name": "",
          "type": "string"
        },
        {
          "internalType": "uint256",
          "name": "",
          "type": "uint256"
        }
      ],
      "stateMutability": "view",
      "type": "function"
    }
  ],
  "bytecode": "0x608060405234801561001057600080fd5b50610a9e806100206000396000f3fe608060405234801561001057600080fd5b506004361061004c5760003560e01c80635786fd40146100515780637acc0b201461006f578063b9db15b4146100a1578063f28ea1c1146100d3575b600080fd5b6100596100ef565b604051610066919061043e565b60405180910390f35b61008960048036038101906100849190610499565b6100fb565b60405161009893929190610556565b60405180910390f35b6100bb60048036038101906100b69190610499565b610245565b6040516100ca93929190610556565b60405180910390f35b6100ed60048036038101906100e891906106d0565b6103a2565b005b60008080549050905090565b6000818154811061010b57600080fd5b906000526020600020906003020160009150905080600001805461012e9061078a565b80601f016020809104026020016040519081016040528092919081815260200182805461015a9061078a565b80156101a75780601f1061017c576101008083540402835291602001916101a7565b820191906000526020600020905b81548152906001019060200180831161018a57829003601f168201915b5050505050908060010180546101bc9061078a565b80601f01602080910402602001604051908101604052809291908181526020018280546101e89061078a565b80156102355780601f1061020a57610100808354040283529160200191610235565b820191906000526020600020905b81548152906001019060200180831161021857829003601f168201915b5050505050908060020154905083565b6060806000806000858154811061025f5761025e6107bb565b5b90600052602060002090600302019050806000018160010182600201548280546102889061078a565b80601f01602080910402602001604051908101604052809291908181526020018280546102b49061078a565b80156103015780601f106102d657610100808354040283529160200191610301565b820191906000526020600020905b8154815290600101906020018083116102e457829003601f168201915b505050505092508180546103149061078a565b80601f01602080910402602001604051908101604052809291908181526020018280546103409061078a565b801561038d5780601f106103625761010080835404028352916020019161038d565b820191906000526020600020905b81548152906001019060200180831161037057829003601f168201915b50505050509150935093509350509193909250565b6000604051806060016040528085815260200184815260200183815250908060018154018082558091505060019003906000526020600020906003020160009091909190915060008201518160000190816103fd9190610996565b5060208201518160010190816104139190610996565b50604082015181600201555050505050565b6000819050919050565b61043881610425565b82525050565b6000602082019050610453600083018461042f565b92915050565b6000604051905090565b600080fd5b600080fd5b61047681610425565b811461048157600080fd5b50565b6000813590506104938161046d565b92915050565b6000602082840312156104af576104ae610463565b5b60006104bd84828501610484565b91505092915050565b600081519050919050565b600082825260208201905092915050565b60005b838110156105005780820151818401526020810190506104e5565b60008484015250505050565b6000601f19601f8301169050919050565b6000610528826104c6565b61053281856104d1565b93506105428185602086016104e2565b61054b8161050c565b840191505092915050565b60006060820190508181036000830152610570818661051d565b90508181036020830152610584818561051d565b9050610593604083018461042f565b949350505050565b600080fd5b600080fd5b7f4e487b7100000000000000000000000000000000000000000000000000000000600052604160045260246000fd5b6105dd8261050c565b810181811067ffffffffffffffff821117156105fc576105fb6105a5565b5b80604052505050565b600061060f610459565b905061061b82826105d4565b919050565b600067ffffffffffffffff82111561063b5761063a6105a5565b5b6106448261050c565b9050602081019050919050565b82818337600083830152505050565b600061067361066e84610620565b610605565b90508281526020810184848401111561068f5761068e6105a0565b5b61069a848285610651565b509392505050565b600082601f8301126106b7576106b661059b565b5b81356106c7848260208601610660565b91505092915050565b6000806000606084860312156106e9576106e8610463565b5b600084013567ffffffffffffffff81111561070757610706610468565b5b610713868287016106a2565b935050602084013567ffffffffffffffff81111561073457610733610468565b5b610740868287016106a2565b925050604061075186828701610484565b9150509250925092565b7f4e487b7100000000000000000000000000000000000000000000000000000000600052602260045260246000fd5b600060028204905060018216806107a257607f821691505b6020821081036107b5576107b461075b565b5b50919050565b7f4e487b7100000000000000000000000000000000000000000000000000000000600052603260045260246000fd5b60008190508160005260206000209050919050565b60006020601f8301049050919050565b600082821b905092915050565b60006008830261084c7fffffffffffffffffffffffffffffffffffffffffffffffffffffffffffffffff8261080f565b610856868361080f565b95508019841693508086168417925050509392505050565b6000819050919050565b600061089361088e61088984610425565b61086e565b610425565b9050919050565b6000819050919050565b6108ad83610878565b6108c16108b98261089a565b84845461081c565b825550505050565b600090565b6108d66108c9565b6108e18184846108a4565b505050565b5b81811015610905576108fa6000826108ce565b6001810190506108e7565b5050565b601f82111561094a5761091b816107ea565b610924846107ff565b81016020851015610933578190505b61094761093f856107ff565b8301826108e6565b50505b505050565b600082821c905092915050565b600061096d6000198460080261094f565b1980831691505092915050565b6000610986838361095c565b9150826002028217905092915050565b61099f826104c6565b67ffffffffffffffff8111156109b8576109b76105a5565b5b6109c2825461078a565b6109cd828285610909565b600060209050601f831160018114610a0057600084156109ee578287015190505b6109f8858261097a565b865550610a60565b601f198416610a0e866107ea565b60005b82811015610a3657848901518255600182019150602085019450602081019050610a11565b86831015610a535784890151610a4f601f89168261095c565b8355505b6001600288020188555050505b50505050505056fea2646970667358221220fef279d3eaf06fcf41f4d94a54c2cc3b5f1924cb540a1d1d0024ac2453c2c0bd64736f6c63430008130033",
  "immutableReferences": {},
  "source": "// SPDX-License-Identifier: MIT\r\n\r\npragma solidity ^0.8.0;\r\n\r\ncontract Products {\r\n  struct Product {\r\n    string id;\r\n    string name;\r\n    uint256 price;\r\n  }\r\n\r\n  Product[] public products;\r\n\r\n  function addProduct(string memory id, string memory name, uint256 price) public {\r\n    products.push(Product(id, name, price));\r\n  }\r\n\r\n  function getProductsCount() public view returns (uint256) {\r\n    return products.length;\r\n  }\r\n\r\n  function getProduct(uint256 index) public view returns (string memory id, string memory, uint256) {\r\n    Product storage product = products[index];\r\n    return (product.id, product.name, product.price);\r\n  }\r\n}\r\n\r\n",
  "sourcePath": "C:\\Users\\user\\Desktop\\GIT_REPOS\\hack-a-nest\\contracts\\separate_contracts\\Products.sol",
  "compiler": {
    "name": "solc",
    "version": "0.8.19+commit.7dd6d404.Emscripten.clang"
  },
  "schemaVersion": "3.4.13",
  "updatedAt": "2023-03-25T11:58:52.048Z",
  "devdoc": {
    "kind": "dev",
    "methods": {},
    "version": 1
  },
  "userdoc": {
    "kind": "user",
    "methods": {},
    "version": 1
  }
}