{
  "contractName": "supplychain",
  "abi": [
    {
      "anonymous": false,
      "inputs": [
        {
          "indexed": true,
          "internalType": "string",
          "name": "id",
          "type": "string"
        },
        {
          "indexed": false,
          "internalType": "string",
          "name": "name",
          "type": "string"
        },
        {
          "indexed": false,
          "internalType": "uint256",
          "name": "price",
          "type": "uint256"
        },
        {
          "indexed": false,
          "internalType": "uint256",
          "name": "batchId",
          "type": "uint256"
        },
        {
          "indexed": false,
          "internalType": "string",
          "name": "productDescription",
          "type": "string"
        },
        {
          "indexed": false,
          "internalType": "address",
          "name": "owner",
          "type": "address"
        },
        {
          "indexed": false,
          "internalType": "string",
          "name": "manufacturerId",
          "type": "string"
        }
      ],
      "name": "ProductAdded",
      "type": "event"
    },
    {
      "anonymous": false,
      "inputs": [
        {
          "indexed": false,
          "internalType": "string",
          "name": "message",
          "type": "string"
        }
      ],
      "name": "Success",
      "type": "event"
    },
    {
      "inputs": [
        {
          "internalType": "string",
          "name": "id",
          "type": "string"
        },
        {
          "internalType": "string",
          "name": "name",
          "type": "string"
        },
        {
          "internalType": "uint256",
          "name": "price",
          "type": "uint256"
        },
        {
          "internalType": "uint256",
          "name": "batchId",
          "type": "uint256"
        },
        {
          "internalType": "string",
          "name": "productDescription",
          "type": "string"
        },
        {
          "internalType": "string",
          "name": "manufacturerId",
          "type": "string"
        }
      ],
      "name": "addProduct",
      "outputs": [],
      "stateMutability": "nonpayable",
      "type": "function"
    },
    {
      "inputs": [
        {
          "internalType": "string",
          "name": "id",
          "type": "string"
        }
      ],
      "name": "getProductInfo",
      "outputs": [
        {
          "components": [
            {
              "internalType": "string",
              "name": "name",
              "type": "string"
            },
            {
              "internalType": "uint256",
              "name": "price",
              "type": "uint256"
            },
            {
              "internalType": "uint256",
              "name": "batchId",
              "type": "uint256"
            },
            {
              "internalType": "string",
              "name": "productDescription",
              "type": "string"
            },
            {
              "internalType": "address",
              "name": "owner",
              "type": "address"
            },
            {
              "internalType": "string",
              "name": "manufacturerId",
              "type": "string"
            }
          ],
          "internalType": "struct supplychain.Product",
          "name": "",
          "type": "tuple"
        }
      ],
      "stateMutability": "view",
      "type": "function",
      "constant": true
    },
    {
      "inputs": [
        {
          "internalType": "string",
          "name": "manufacturerId",
          "type": "string"
        }
      ],
      "name": "getProducts",
      "outputs": [
        {
          "internalType": "string[]",
          "name": "",
          "type": "string[]"
        },
        {
          "internalType": "uint256",
          "name": "",
          "type": "uint256"
        }
      ],
      "stateMutability": "view",
      "type": "function",
      "constant": true
    },
    {
      "inputs": [
        {
          "internalType": "string",
          "name": "id",
          "type": "string"
        },
        {
          "internalType": "string",
          "name": "newOwnerType",
          "type": "string"
        },
        {
          "internalType": "address",
          "name": "newOwner",
          "type": "address"
        },
        {
          "internalType": "string",
          "name": "newOwnerId",
          "type": "string"
        }
      ],
      "name": "transferOwnership",
      "outputs": [],
      "stateMutability": "nonpayable",
      "type": "function"
    },
    {
      "inputs": [
        {
          "internalType": "string",
          "name": "id",
          "type": "string"
        }
      ],
      "name": "getProductTimeline",
      "outputs": [
        {
          "internalType": "uint256[]",
          "name": "",
          "type": "uint256[]"
        },
        {
          "internalType": "string[]",
          "name": "",
          "type": "string[]"
        },
        {
          "internalType": "string[]",
          "name": "",
          "type": "string[]"
        },
        {
          "internalType": "address[]",
          "name": "",
          "type": "address[]"
        },
        {
          "internalType": "uint256[]",
          "name": "",
          "type": "uint256[]"
        }
      ],
      "stateMutability": "view",
      "type": "function",
      "constant": true
    }
  ],
  "bytecode": "0x608060405234801561001057600080fd5b506126e3806100206000396000f3fe608060405234801561001057600080fd5b50600436106100575760003560e01c806327d2b6731461005c57806329e295871461007857806357ba11b0146100ac578063c2657513146100dc578063c4ec4f051461010d575b600080fd5b61007660048036038101906100719190611648565b610129565b005b610092600480360381019061008d9190611703565b610507565b6040516100a3959493929190611a13565b60405180910390f35b6100c660048036038101906100c19190611703565b6109a0565b6040516100d39190611b20565b60405180910390f35b6100f660048036038101906100f19190611703565b610c91565b604051610104929190611b51565b60405180910390f35b61012760048036038101906101229190611bad565b610dd2565b005b600060018560405161013b9190611ce6565b908152602001604051809103902090503373ffffffffffffffffffffffffffffffffffffffff168160040160009054906101000a900473ffffffffffffffffffffffffffffffffffffffff1673ffffffffffffffffffffffffffffffffffffffff16146101dd576040517f08c379a00000000000000000000000000000000000000000000000000000000081526004016101d490611d80565b60405180910390fd5b600073ffffffffffffffffffffffffffffffffffffffff168373ffffffffffffffffffffffffffffffffffffffff160361024c576040517f08c379a000000000000000000000000000000000000000000000000000000000815260040161024390611dec565b60405180910390fd5b61025584611138565b610294576040517f08c379a000000000000000000000000000000000000000000000000000000000815260040161028b90611e58565b60405180910390fd5b828160040160006101000a81548173ffffffffffffffffffffffffffffffffffffffff021916908373ffffffffffffffffffffffffffffffffffffffff16021790555060006040518060c001604052804281526020016040518060400160405280601581526020017f4f776e657273686970207472616e73666572726564000000000000000000000081525081526020013373ffffffffffffffffffffffffffffffffffffffff1681526020018573ffffffffffffffffffffffffffffffffffffffff1681526020018681526020018481525090506002866040516103799190611ce6565b90815260200160405180910390208190806001815401808255809150506001900390600052602060002090600602016000909190919091506000820151816000015560208201518160010190816103d09190612084565b5060408201518160020160006101000a81548173ffffffffffffffffffffffffffffffffffffffff021916908373ffffffffffffffffffffffffffffffffffffffff16021790555060608201518160030160006101000a81548173ffffffffffffffffffffffffffffffffffffffff021916908373ffffffffffffffffffffffffffffffffffffffff16021790555060808201518160040190816104749190612084565b5060a082015181600501908161048a9190612084565b50505060038660405161049d9190611ce6565b908152602001604051809103902060016002886040516104bd9190611ce6565b9081526020016040518091039020805490506104d99190612185565b9080600181540180825580915050600190039060005260206000200160009091909190915055505050505050565b606080606080606060006003876040516105219190611ce6565b9081526020016040518091039020905060006002886040516105439190611ce6565b908152602001604051809103902090506000818054905067ffffffffffffffff811115610573576105726114bf565b5b6040519080825280602002602001820160405280156105a15781602001602082028036833780820191505090505b5090506000828054905067ffffffffffffffff8111156105c4576105c36114bf565b5b6040519080825280602002602001820160405280156105f757816020015b60608152602001906001900390816105e25790505b5090506000838054905067ffffffffffffffff81111561061a576106196114bf565b5b60405190808252806020026020018201604052801561064d57816020015b60608152602001906001900390816106385790505b5090506000848054905067ffffffffffffffff8111156106705761066f6114bf565b5b60405190808252806020026020018201604052801561069e5781602001602082028036833780820191505090505b50905060005b858054905081101561092f578581815481106106c3576106c26121b9565b5b9060005260206000209060060201600001548582815181106106e8576106e76121b9565b5b602002602001018181525050858181548110610707576107066121b9565b5b9060005260206000209060060201600101805461072390611ea7565b80601f016020809104026020016040519081016040528092919081815260200182805461074f90611ea7565b801561079c5780601f106107715761010080835404028352916020019161079c565b820191906000526020600020905b81548152906001019060200180831161077f57829003601f168201915b50505050508482815181106107b4576107b36121b9565b5b60200260200101819052508581815481106107d2576107d16121b9565b5b906000526020600020906006020160040180546107ee90611ea7565b80601f016020809104026020016040519081016040528092919081815260200182805461081a90611ea7565b80156108675780601f1061083c57610100808354040283529160200191610867565b820191906000526020600020905b81548152906001019060200180831161084a57829003601f168201915b505050505083828151811061087f5761087e6121b9565b5b602002602001018190525085818154811061089d5761089c6121b9565b5b906000526020600020906006020160030160009054906101000a900473ffffffffffffffffffffffffffffffffffffffff168282815181106108e2576108e16121b9565b5b602002602001019073ffffffffffffffffffffffffffffffffffffffff16908173ffffffffffffffffffffffffffffffffffffffff16815250508080610927906121e8565b9150506106a4565b5085838383878480548060200260200160405190810160405280929190818152602001828054801561098057602002820191906000526020600020905b81548152602001906001019080831161096c575b505050505094509a509a509a509a509a5050505050505091939590929450565b6109a8611444565b60006001836040516109ba9190611ce6565b90815260200160405180910390209050600073ffffffffffffffffffffffffffffffffffffffff168160040160009054906101000a900473ffffffffffffffffffffffffffffffffffffffff1673ffffffffffffffffffffffffffffffffffffffff1603610a5d576040517f08c379a0000000000000000000000000000000000000000000000000000000008152600401610a54906122a2565b60405180910390fd5b806040518060c0016040529081600082018054610a7990611ea7565b80601f0160208091040260200160405190810160405280929190818152602001828054610aa590611ea7565b8015610af25780601f10610ac757610100808354040283529160200191610af2565b820191906000526020600020905b815481529060010190602001808311610ad557829003601f168201915b505050505081526020016001820154815260200160028201548152602001600382018054610b1f90611ea7565b80601f0160208091040260200160405190810160405280929190818152602001828054610b4b90611ea7565b8015610b985780601f10610b6d57610100808354040283529160200191610b98565b820191906000526020600020905b815481529060010190602001808311610b7b57829003601f168201915b505050505081526020016004820160009054906101000a900473ffffffffffffffffffffffffffffffffffffffff1673ffffffffffffffffffffffffffffffffffffffff1673ffffffffffffffffffffffffffffffffffffffff168152602001600582018054610c0790611ea7565b80601f0160208091040260200160405190810160405280929190818152602001828054610c3390611ea7565b8015610c805780601f10610c5557610100808354040283529160200191610c80565b820191906000526020600020905b815481529060010190602001808311610c6357829003601f168201915b505050505081525050915050919050565b6060600080600084604051610ca69190611ce6565b908152602001604051809103902090506000818054905011610cfd576040517f08c379a0000000000000000000000000000000000000000000000000000000008152600401610cf490612334565b60405180910390fd5b6000818054905067ffffffffffffffff811115610d1d57610d1c6114bf565b5b604051908082528060200260200182016040528015610d5057816020015b6060815260200190600190039081610d3b5790505b50905060005b8280549050811015610dc057610d8f838281548110610d7857610d776121b9565b5b9060005260206000209060060201600201546112d2565b828281518110610da257610da16121b9565b5b60200260200101819052508080610db8906121e8565b915050610d56565b50808280549050935093505050915091565b600073ffffffffffffffffffffffffffffffffffffffff16600187604051610dfa9190611ce6565b908152602001604051809103902060040160009054906101000a900473ffffffffffffffffffffffffffffffffffffffff1673ffffffffffffffffffffffffffffffffffffffff1614610e82576040517f08c379a0000000000000000000000000000000000000000000000000000000008152600401610e79906123a0565b60405180910390fd5b6040518060c001604052808681526020018581526020018481526020018381526020013373ffffffffffffffffffffffffffffffffffffffff16815260200182815250600187604051610ed59190611ce6565b90815260200160405180910390206000820151816000019081610ef89190612084565b5060208201518160010155604082015181600201556060820151816003019081610f229190612084565b5060808201518160040160006101000a81548173ffffffffffffffffffffffffffffffffffffffff021916908373ffffffffffffffffffffffffffffffffffffffff16021790555060a0820151816005019081610f7f9190612084565b50905050600081604051610f939190611ce6565b9081526020016040518091039020600187604051610fb19190611ce6565b9081526020016040518091039020908060018154018082558091505060019003906000526020600020906006020160009091909190915060008201816000019081610ffc91906123d6565b5060018201548160010155600282015481600201556003820181600301908161102591906123d6565b506004820160009054906101000a900473ffffffffffffffffffffffffffffffffffffffff168160040160006101000a81548173ffffffffffffffffffffffffffffffffffffffff021916908373ffffffffffffffffffffffffffffffffffffffff160217905550600582018160050190816110a191906123d6565b505050856040516110b29190611ce6565b60405180910390207fa83ae1dcffd9da4d6743fc1ddcd6c1fd58c25ae1e1ea2315f46a3b79656da0fb8686868633876040516110f396959493929190612506565b60405180910390a27f166b96a382dc3abc86ba052ca9c020cfd7022d2d3059e868918a3d20779e41cc604051611128906125c8565b60405180910390a1505050505050565b60008060405180608001604052806040518060400160405280600c81526020017f6d616e756661637475726572000000000000000000000000000000000000000081525081526020016040518060400160405280600881526020017f72657461696c657200000000000000000000000000000000000000000000000081525081526020016040518060400160405280600b81526020017f6469737472696275746f7200000000000000000000000000000000000000000081525081526020016040518060400160405280600881526020017f636f6e73756d6572000000000000000000000000000000000000000000000000815250815250905060005b60048110156112c6578360405160200161124f9190611ce6565b60405160208183030381529060405280519060200120828260048110611278576112776121b9565b5b602002015160405160200161128d9190611ce6565b60405160208183030381529060405280519060200120036112b3576001925050506112cd565b80806112be906121e8565b915050611235565b5060009150505b919050565b606060008203611319576040518060400160405280600181526020017f3000000000000000000000000000000000000000000000000000000000000000815250905061143f565b600082905060005b6000821461134b578080611334906121e8565b915050600a826113449190612617565b9150611321565b60008167ffffffffffffffff811115611367576113666114bf565b5b6040519080825280601f01601f1916602001820160405280156113995781602001600182028036833780820191505090505b50905060008290505b60008614611437576001816113b79190612185565b90506000600a876113c89190612648565b60306113d49190612679565b905060008160f81b9050808484815181106113f2576113f16121b9565b5b60200101907effffffffffffffffffffffffffffffffffffffffffffffffffffffffffffff1916908160001a905350600a8861142e9190612617565b975050506113a2565b819450505050505b919050565b6040518060c0016040528060608152602001600081526020016000815260200160608152602001600073ffffffffffffffffffffffffffffffffffffffff168152602001606081525090565b6000604051905090565b600080fd5b600080fd5b600080fd5b600080fd5b6000601f19601f8301169050919050565b7f4e487b7100000000000000000000000000000000000000000000000000000000600052604160045260246000fd5b6114f7826114ae565b810181811067ffffffffffffffff82111715611516576115156114bf565b5b80604052505050565b6000611529611490565b905061153582826114ee565b919050565b600067ffffffffffffffff821115611555576115546114bf565b5b61155e826114ae565b9050602081019050919050565b82818337600083830152505050565b600061158d6115888461153a565b61151f565b9050828152602081018484840111156115a9576115a86114a9565b5b6115b484828561156b565b509392505050565b600082601f8301126115d1576115d06114a4565b5b81356115e184826020860161157a565b91505092915050565b600073ffffffffffffffffffffffffffffffffffffffff82169050919050565b6000611615826115ea565b9050919050565b6116258161160a565b811461163057600080fd5b50565b6000813590506116428161161c565b92915050565b600080600080608085870312156116625761166161149a565b5b600085013567ffffffffffffffff8111156116805761167f61149f565b5b61168c878288016115bc565b945050602085013567ffffffffffffffff8111156116ad576116ac61149f565b5b6116b9878288016115bc565b93505060406116ca87828801611633565b925050606085013567ffffffffffffffff8111156116eb576116ea61149f565b5b6116f7878288016115bc565b91505092959194509250565b6000602082840312156117195761171861149a565b5b600082013567ffffffffffffffff8111156117375761173661149f565b5b611743848285016115bc565b91505092915050565b600081519050919050565b600082825260208201905092915050565b6000819050602082019050919050565b6000819050919050565b61178b81611778565b82525050565b600061179d8383611782565b60208301905092915050565b6000602082019050919050565b60006117c18261174c565b6117cb8185611757565b93506117d683611768565b8060005b838110156118075781516117ee8882611791565b97506117f9836117a9565b9250506001810190506117da565b5085935050505092915050565b600081519050919050565b600082825260208201905092915050565b6000819050602082019050919050565b600081519050919050565b600082825260208201905092915050565b60005b8381101561187a57808201518184015260208101905061185f565b60008484015250505050565b600061189182611840565b61189b818561184b565b93506118ab81856020860161185c565b6118b4816114ae565b840191505092915050565b60006118cb8383611886565b905092915050565b6000602082019050919050565b60006118eb82611814565b6118f5818561181f565b93508360208202850161190785611830565b8060005b85811015611943578484038952815161192485826118bf565b945061192f836118d3565b925060208a0199505060018101905061190b565b50829750879550505050505092915050565b600081519050919050565b600082825260208201905092915050565b6000819050602082019050919050565b61198a8161160a565b82525050565b600061199c8383611981565b60208301905092915050565b6000602082019050919050565b60006119c082611955565b6119ca8185611960565b93506119d583611971565b8060005b83811015611a065781516119ed8882611990565b97506119f8836119a8565b9250506001810190506119d9565b5085935050505092915050565b600060a0820190508181036000830152611a2d81886117b6565b90508181036020830152611a4181876118e0565b90508181036040830152611a5581866118e0565b90508181036060830152611a6981856119b5565b90508181036080830152611a7d81846117b6565b90509695505050505050565b600060c0830160008301518482036000860152611aa68282611886565b9150506020830151611abb6020860182611782565b506040830151611ace6040860182611782565b5060608301518482036060860152611ae68282611886565b9150506080830151611afb6080860182611981565b5060a083015184820360a0860152611b138282611886565b9150508091505092915050565b60006020820190508181036000830152611b3a8184611a89565b905092915050565b611b4b81611778565b82525050565b60006040820190508181036000830152611b6b81856118e0565b9050611b7a6020830184611b42565b9392505050565b611b8a81611778565b8114611b9557600080fd5b50565b600081359050611ba781611b81565b92915050565b60008060008060008060c08789031215611bca57611bc961149a565b5b600087013567ffffffffffffffff811115611be857611be761149f565b5b611bf489828a016115bc565b965050602087013567ffffffffffffffff811115611c1557611c1461149f565b5b611c2189828a016115bc565b9550506040611c3289828a01611b98565b9450506060611c4389828a01611b98565b935050608087013567ffffffffffffffff811115611c6457611c6361149f565b5b611c7089828a016115bc565b92505060a087013567ffffffffffffffff811115611c9157611c9061149f565b5b611c9d89828a016115bc565b9150509295509295509295565b600081905092915050565b6000611cc082611840565b611cca8185611caa565b9350611cda81856020860161185c565b80840191505092915050565b6000611cf28284611cb5565b915081905092915050565b600082825260208201905092915050565b7f4f6e6c79207468652070726f64756374206f776e65722063616e207472616e7360008201527f666572206f776e65727368697000000000000000000000000000000000000000602082015250565b6000611d6a602d83611cfd565b9150611d7582611d0e565b604082019050919050565b60006020820190508181036000830152611d9981611d5d565b9050919050565b7f496e76616c6964206e6577206f776e6572206164647265737300000000000000600082015250565b6000611dd6601983611cfd565b9150611de182611da0565b602082019050919050565b60006020820190508181036000830152611e0581611dc9565b9050919050565b7f496e76616c6964206e6577206f776e6572207479706500000000000000000000600082015250565b6000611e42601683611cfd565b9150611e4d82611e0c565b602082019050919050565b60006020820190508181036000830152611e7181611e35565b9050919050565b7f4e487b7100000000000000000000000000000000000000000000000000000000600052602260045260246000fd5b60006002820490506001821680611ebf57607f821691505b602082108103611ed257611ed1611e78565b5b50919050565b60008190508160005260206000209050919050565b60006020601f8301049050919050565b600082821b905092915050565b600060088302611f3a7fffffffffffffffffffffffffffffffffffffffffffffffffffffffffffffffff82611efd565b611f448683611efd565b95508019841693508086168417925050509392505050565b6000819050919050565b6000611f81611f7c611f7784611778565b611f5c565b611778565b9050919050565b6000819050919050565b611f9b83611f66565b611faf611fa782611f88565b848454611f0a565b825550505050565b600090565b611fc4611fb7565b611fcf818484611f92565b505050565b5b81811015611ff357611fe8600082611fbc565b600181019050611fd5565b5050565b601f8211156120385761200981611ed8565b61201284611eed565b81016020851015612021578190505b61203561202d85611eed565b830182611fd4565b50505b505050565b600082821c905092915050565b600061205b6000198460080261203d565b1980831691505092915050565b6000612074838361204a565b9150826002028217905092915050565b61208d82611840565b67ffffffffffffffff8111156120a6576120a56114bf565b5b6120b08254611ea7565b6120bb828285611ff7565b600060209050601f8311600181146120ee57600084156120dc578287015190505b6120e68582612068565b86555061214e565b601f1984166120fc86611ed8565b60005b82811015612124578489015182556001820191506020850194506020810190506120ff565b86831015612141578489015161213d601f89168261204a565b8355505b6001600288020188555050505b505050505050565b7f4e487b7100000000000000000000000000000000000000000000000000000000600052601160045260246000fd5b600061219082611778565b915061219b83611778565b92508282039050818111156121b3576121b2612156565b5b92915050565b7f4e487b7100000000000000000000000000000000000000000000000000000000600052603260045260246000fd5b60006121f382611778565b91507fffffffffffffffffffffffffffffffffffffffffffffffffffffffffffffffff820361222557612224612156565b5b600182019050919050565b7f50726f647563742077697468207468697320494420646f6573206e6f7420657860008201527f6973740000000000000000000000000000000000000000000000000000000000602082015250565b600061228c602383611cfd565b915061229782612230565b604082019050919050565b600060208201905081810360008301526122bb8161227f565b9050919050565b7f4d616e75666163747572657220646f6573206e6f74206861766520616e79207060008201527f726f647563747300000000000000000000000000000000000000000000000000602082015250565b600061231e602783611cfd565b9150612329826122c2565b604082019050919050565b6000602082019050818103600083015261234d81612311565b9050919050565b7f50726f6475637420494420616c72656164792065786973747300000000000000600082015250565b600061238a601983611cfd565b915061239582612354565b602082019050919050565b600060208201905081810360008301526123b98161237d565b9050919050565b6000815490506123cf81611ea7565b9050919050565b8181036123e45750506124bc565b6123ed826123c0565b67ffffffffffffffff811115612406576124056114bf565b5b6124108254611ea7565b61241b828285611ff7565b6000601f83116001811461244a5760008415612438578287015490505b6124428582612068565b8655506124b5565b601f19841661245887611ed8565b965061246386611ed8565b60005b8281101561248b57848901548255600182019150600185019450602081019050612466565b868310156124a857848901546124a4601f89168261204a565b8355505b6001600288020188555050505b5050505050505b565b60006124c982611840565b6124d38185611cfd565b93506124e381856020860161185c565b6124ec816114ae565b840191505092915050565b6125008161160a565b82525050565b600060c082019050818103600083015261252081896124be565b905061252f6020830188611b42565b61253c6040830187611b42565b818103606083015261254e81866124be565b905061255d60808301856124f7565b81810360a083015261256f81846124be565b9050979650505050505050565b7f50726f64756374206164646564207375636365737366756c6c792e0000000000600082015250565b60006125b2601b83611cfd565b91506125bd8261257c565b602082019050919050565b600060208201905081810360008301526125e1816125a5565b9050919050565b7f4e487b7100000000000000000000000000000000000000000000000000000000600052601260045260246000fd5b600061262282611778565b915061262d83611778565b92508261263d5761263c6125e8565b5b828204905092915050565b600061265382611778565b915061265e83611778565b92508261266e5761266d6125e8565b5b828206905092915050565b600061268482611778565b915061268f83611778565b92508282019050808211156126a7576126a6612156565b5b9291505056fea2646970667358221220bb5e656a461001eb79253ad520db284bfc184d7592f75670f7ea0127276908ba64736f6c63430008130033",
  "immutableReferences": {},
  "source": "//SPDX-License-Identifier: MIT\r\n\r\npragma solidity ^0.8.0;\r\n\r\ncontract supplychain {\r\n    struct Product {\r\n        string name;\r\n        uint price;\r\n        uint batchId;\r\n        string productDescription;\r\n        address owner;\r\n        string manufacturerId;\r\n    }\r\n\r\n    struct ProductEvent {\r\n        uint timestamp;\r\n        string description;\r\n        address from;\r\n        address to;\r\n        string newOwnerType;\r\n        string newOwnerId;\r\n    }\r\n\r\n    mapping(string => Product[]) manufacturerProducts; // stores all the products for each manufacturer\r\n    mapping(string => Product) products; // stores all the products in the chain\r\n    mapping(string => ProductEvent[]) productEvents; // stores the timeline for each product\r\n    mapping(string => uint[]) productTimelineKeys; // stores the timeline keys for each product\r\n    event ProductAdded(string indexed id, string name, uint price, uint batchId, string productDescription, address owner, string manufacturerId);\r\n    event Success(string message);\r\n\r\n    function addProduct(string memory id, string memory name, uint price, uint batchId, string memory productDescription, string memory manufacturerId) public {\r\n        require(products[id].owner == address(0), \"Product ID already exists\");\r\n        products[id] = Product(name, price, batchId, productDescription, msg.sender, manufacturerId);\r\n        manufacturerProducts[manufacturerId].push(products[id]);\r\n        emit ProductAdded(id, name, price, batchId, productDescription, msg.sender, manufacturerId);\r\n        emit Success(\"Product added successfully.\");\r\n    }\r\n\r\n    function getProductInfo(string memory id) public view returns (Product memory) {\r\n        Product storage product = products[id];\r\n        require(product.owner != address(0), \"Product with this ID does not exist\");\r\n        return product;\r\n    }\r\n\r\n    function getProducts(string memory manufacturerId) public view returns (string[] memory, uint) {\r\n    Product[] storage productList = manufacturerProducts[manufacturerId];\r\n    require(productList.length > 0, \"Manufacturer does not have any products\");\r\n\r\n    string[] memory batchIds = new string[](productList.length);\r\n    for (uint i = 0; i < productList.length; i++) {\r\n        batchIds[i] = uint2str(productList[i].batchId);\r\n    }\r\n\r\n    return (batchIds, productList.length);\r\n    }\r\n\r\n    function uint2str(uint256 _i) private pure returns (string memory) {\r\n        if (_i == 0) {\r\n            return \"0\";\r\n        }\r\n        uint256 j = _i;\r\n        uint256 length;\r\n        while (j != 0) {\r\n            length++;\r\n            j /= 10;\r\n        }\r\n        bytes memory bstr = new bytes(length);\r\n        uint256 k = length;\r\n        while (_i != 0) {\r\n            k = k-1;\r\n            uint8 temp = uint8(48 + _i % 10);\r\n            bytes1 b1 = bytes1(temp);\r\n            bstr[k] = b1;\r\n            _i /= 10;\r\n        }\r\n        return string(bstr);\r\n    }\r\n\r\n    function transferOwnership(string memory id, string memory newOwnerType, address newOwner, string memory newOwnerId) public {\r\n        Product storage product = products[id];\r\n        require(product.owner == msg.sender, \"Only the product owner can transfer ownership\");\r\n        require(newOwner != address(0), \"Invalid new owner address\");\r\n        require(isValidNewOwnerType(newOwnerType), \"Invalid new owner type\");\r\n        product.owner = newOwner;\r\n\r\n        // Create new ProductEvent\r\n        ProductEvent memory eventToAdd = ProductEvent({\r\n            timestamp: block.timestamp,\r\n            description: \"Ownership transferred\",\r\n            from: msg.sender,\r\n            to: newOwner,\r\n            newOwnerType: newOwnerType,\r\n            newOwnerId: newOwnerId\r\n        });\r\n\r\n        // Add ProductEvent to timeline\r\n        productEvents[id].push(eventToAdd);\r\n        productTimelineKeys[id].push(productEvents[id].length - 1);\r\n    }\r\n\r\n    function getProductTimeline(string memory id) public view returns (uint[] memory, string[] memory, string[] memory, address[] memory, uint[] memory) {\r\n    uint[] storage timelineKeys = productTimelineKeys[id];\r\n    ProductEvent[] storage timelineEvents = productEvents[id];\r\n\r\n    uint[] memory timestamps = new uint[](timelineEvents.length);\r\n    string[] memory descriptions = new string[](timelineEvents.length);\r\n    string[] memory newOwnerTypes = new string[](timelineEvents.length);\r\n    address[] memory owners = new address[](timelineEvents.length);\r\n\r\n    for (uint i = 0; i < timelineEvents.length; i++) {\r\n        timestamps[i] = timelineEvents[i].timestamp;\r\n        descriptions[i] = timelineEvents[i].description;\r\n        newOwnerTypes[i] = timelineEvents[i].newOwnerType;\r\n        owners[i] = timelineEvents[i].to;\r\n    }\r\n\r\n    return (timelineKeys, descriptions, newOwnerTypes, owners, timestamps);\r\n    }\r\n\r\n\r\n    function isValidNewOwnerType(string memory newOwnerType) private pure returns (bool) {\r\n        string[4] memory validNewOwnerTypes = [\"manufacturer\",\"retailer\", \"distributor\", \"consumer\"];\r\n        for (uint i = 0; i < validNewOwnerTypes.length; i++) {\r\n            if (keccak256(abi.encodePacked(validNewOwnerTypes[i])) == keccak256(abi.encodePacked(newOwnerType))) {\r\n                return true;\r\n            }\r\n        }\r\n        return false;\r\n    }\r\n    }",
  "sourcePath": "C:\\Users\\user\\Desktop\\GIT_REPOS\\provenX\\backend\\contracts\\supplychain.sol",
  "compiler": {
    "name": "solc",
    "version": "0.8.19+commit.7dd6d404.Emscripten.clang"
  },
  "schemaVersion": "3.4.13",
  "updatedAt": "2023-04-15T09:23:21.939Z",
  "networkType": "ethereum",
  "devdoc": {
    "kind": "dev",
    "methods": {},
    "version": 1
  },
  "userdoc": {
    "kind": "user",
    "methods": {},
    "version": 1
  }
}