{
  "contractName": "Manufacturer",
  "abi": [
    {
      "anonymous": false,
      "inputs": [
        {
          "indexed": true,
          "internalType": "string",
          "name": "id",
          "type": "string"
        },
        {
          "indexed": false,
          "internalType": "string",
          "name": "name",
          "type": "string"
        },
        {
          "indexed": false,
          "internalType": "uint256",
          "name": "price",
          "type": "uint256"
        },
        {
          "indexed": false,
          "internalType": "string",
          "name": "productDescription",
          "type": "string"
        },
        {
          "indexed": false,
          "internalType": "address",
          "name": "owner",
          "type": "address"
        }
      ],
      "name": "ProductAdded",
      "type": "event"
    },
    {
      "anonymous": false,
      "inputs": [
        {
          "indexed": false,
          "internalType": "string",
          "name": "message",
          "type": "string"
        }
      ],
      "name": "Success",
      "type": "event"
    },
    {
      "inputs": [
        {
          "internalType": "string",
          "name": "id",
          "type": "string"
        },
        {
          "internalType": "string",
          "name": "name",
          "type": "string"
        },
        {
          "internalType": "uint256",
          "name": "price",
          "type": "uint256"
        },
        {
          "internalType": "string",
          "name": "productDescription",
          "type": "string"
        }
      ],
      "name": "addProduct",
      "outputs": [],
      "stateMutability": "nonpayable",
      "type": "function"
    },
    {
      "inputs": [
        {
          "internalType": "string",
          "name": "id",
          "type": "string"
        }
      ],
      "name": "getProductInfo",
      "outputs": [
        {
          "components": [
            {
              "internalType": "string",
              "name": "name",
              "type": "string"
            },
            {
              "internalType": "uint256",
              "name": "price",
              "type": "uint256"
            },
            {
              "internalType": "string",
              "name": "productDescription",
              "type": "string"
            },
            {
              "internalType": "address",
              "name": "owner",
              "type": "address"
            }
          ],
          "internalType": "struct Manufacturer.Product",
          "name": "",
          "type": "tuple"
        }
      ],
      "stateMutability": "view",
      "type": "function"
    },
    {
      "inputs": [
        {
          "internalType": "string",
          "name": "id",
          "type": "string"
        },
        {
          "internalType": "string",
          "name": "newOwnerType",
          "type": "string"
        },
        {
          "internalType": "address",
          "name": "newOwner",
          "type": "address"
        }
      ],
      "name": "transferOwnership",
      "outputs": [],
      "stateMutability": "nonpayable",
      "type": "function"
    },
    {
      "inputs": [
        {
          "internalType": "string",
          "name": "id",
          "type": "string"
        }
      ],
      "name": "getProductTimeline",
      "outputs": [
        {
          "internalType": "uint256[]",
          "name": "",
          "type": "uint256[]"
        },
        {
          "internalType": "string[]",
          "name": "",
          "type": "string[]"
        }
      ],
      "stateMutability": "view",
      "type": "function"
    }
  ],
  "bytecode": "0x608060405234801561001057600080fd5b506118dc806100206000396000f3fe608060405234801561001057600080fd5b506004361061004c5760003560e01c8063122862f91461005157806329e295871461006d57806357ba11b01461009e578063f800d332146100ce575b600080fd5b61006b60048036038101906100669190610caa565b6100ea565b005b61008760048036038101906100829190610d35565b61029d565b604051610095929190610f87565b60405180910390f35b6100b860048036038101906100b39190610d35565b6104ee565b6040516100c59190611037565b60405180910390f35b6100e860048036038101906100e39190611085565b610742565b005b600080846040516100fb919061117c565b908152602001604051809103902090503373ffffffffffffffffffffffffffffffffffffffff168160030160009054906101000a900473ffffffffffffffffffffffffffffffffffffffff1673ffffffffffffffffffffffffffffffffffffffff161461019d576040517f08c379a000000000000000000000000000000000000000000000000000000000815260040161019490611216565b60405180910390fd5b600073ffffffffffffffffffffffffffffffffffffffff168273ffffffffffffffffffffffffffffffffffffffff160361020c576040517f08c379a000000000000000000000000000000000000000000000000000000000815260040161020390611282565b60405180910390fd5b61021583610955565b610254576040517f08c379a000000000000000000000000000000000000000000000000000000000815260040161024b906112ee565b60405180910390fd5b818160030160006101000a81548173ffffffffffffffffffffffffffffffffffffffff021916908373ffffffffffffffffffffffffffffffffffffffff16021790555050505050565b606080600080846040516102b1919061117c565b9081526020016040518091039020905060006002856040516102d3919061117c565b9081526020016040518091039020905060006001866040516102f5919061117c565b908152602001604051809103902090506000818054905067ffffffffffffffff81111561032557610324610b21565b5b6040519080825280602002602001820160405280156103535781602001602082028036833780820191505090505b5090506000828054905067ffffffffffffffff81111561037657610375610b21565b5b6040519080825280602002602001820160405280156103a957816020015b60608152602001906001900390816103945790505b50905060005b83805490508110156104dd578381815481106103ce576103cd61130e565b5b9060005260206000209060050201600001548382815181106103f3576103f261130e565b5b6020026020010181815250508381815481106104125761041161130e565b5b9060005260206000209060050201600101805461042e9061136c565b80601f016020809104026020016040519081016040528092919081815260200182805461045a9061136c565b80156104a75780601f1061047c576101008083540402835291602001916104a7565b820191906000526020600020905b81548152906001019060200180831161048a57829003601f168201915b50505050508282815181106104bf576104be61130e565b5b602002602001018190525080806104d5906113cc565b9150506103af565b508181965096505050505050915091565b6104f6610ab4565b60008083604051610507919061117c565b90815260200160405180910390209050600073ffffffffffffffffffffffffffffffffffffffff168160030160009054906101000a900473ffffffffffffffffffffffffffffffffffffffff1673ffffffffffffffffffffffffffffffffffffffff16036105aa576040517f08c379a00000000000000000000000000000000000000000000000000000000081526004016105a190611486565b60405180910390fd5b806040518060800160405290816000820180546105c69061136c565b80601f01602080910402602001604051908101604052809291908181526020018280546105f29061136c565b801561063f5780601f106106145761010080835404028352916020019161063f565b820191906000526020600020905b81548152906001019060200180831161062257829003601f168201915b50505050508152602001600182015481526020016002820180546106629061136c565b80601f016020809104026020016040519081016040528092919081815260200182805461068e9061136c565b80156106db5780601f106106b0576101008083540402835291602001916106db565b820191906000526020600020905b8154815290600101906020018083116106be57829003601f168201915b505050505081526020016003820160009054906101000a900473ffffffffffffffffffffffffffffffffffffffff1673ffffffffffffffffffffffffffffffffffffffff1673ffffffffffffffffffffffffffffffffffffffff1681525050915050919050565b600073ffffffffffffffffffffffffffffffffffffffff1660008560405161076a919061117c565b908152602001604051809103902060030160009054906101000a900473ffffffffffffffffffffffffffffffffffffffff1673ffffffffffffffffffffffffffffffffffffffff16146107f2576040517f08c379a00000000000000000000000000000000000000000000000000000000081526004016107e9906114f2565b60405180910390fd5b60405180608001604052808481526020018381526020018281526020013373ffffffffffffffffffffffffffffffffffffffff16815250600085604051610839919061117c565b9081526020016040518091039020600082015181600001908161085c91906116be565b5060208201518160010155604082015181600201908161087c91906116be565b5060608201518160030160006101000a81548173ffffffffffffffffffffffffffffffffffffffff021916908373ffffffffffffffffffffffffffffffffffffffff160217905550905050836040516108d5919061117c565b60405180910390207f060ac6af2f61258f15f3442d12ee7086e4edb84e4cf232d70ab6faa1e64cc7af8484843360405161091294939291906117e7565b60405180910390a27f166b96a382dc3abc86ba052ca9c020cfd7022d2d3059e868918a3d20779e41cc60405161094790611886565b60405180910390a150505050565b60008060405180606001604052806040518060400160405280600881526020017f72657461696c657200000000000000000000000000000000000000000000000081525081526020016040518060400160405280600b81526020017f6469737472696275746f7200000000000000000000000000000000000000000081525081526020016040518060400160405280600881526020017f636f6e73756d6572000000000000000000000000000000000000000000000000815250815250905060005b6003811015610aa85783604051602001610a31919061117c565b60405160208183030381529060405280519060200120828260038110610a5a57610a5961130e565b5b6020020151604051602001610a6f919061117c565b6040516020818303038152906040528051906020012003610a9557600192505050610aaf565b8080610aa0906113cc565b915050610a17565b5060009150505b919050565b6040518060800160405280606081526020016000815260200160608152602001600073ffffffffffffffffffffffffffffffffffffffff1681525090565b6000604051905090565b600080fd5b600080fd5b600080fd5b600080fd5b6000601f19601f8301169050919050565b7f4e487b7100000000000000000000000000000000000000000000000000000000600052604160045260246000fd5b610b5982610b10565b810181811067ffffffffffffffff82111715610b7857610b77610b21565b5b80604052505050565b6000610b8b610af2565b9050610b978282610b50565b919050565b600067ffffffffffffffff821115610bb757610bb6610b21565b5b610bc082610b10565b9050602081019050919050565b82818337600083830152505050565b6000610bef610bea84610b9c565b610b81565b905082815260208101848484011115610c0b57610c0a610b0b565b5b610c16848285610bcd565b509392505050565b600082601f830112610c3357610c32610b06565b5b8135610c43848260208601610bdc565b91505092915050565b600073ffffffffffffffffffffffffffffffffffffffff82169050919050565b6000610c7782610c4c565b9050919050565b610c8781610c6c565b8114610c9257600080fd5b50565b600081359050610ca481610c7e565b92915050565b600080600060608486031215610cc357610cc2610afc565b5b600084013567ffffffffffffffff811115610ce157610ce0610b01565b5b610ced86828701610c1e565b935050602084013567ffffffffffffffff811115610d0e57610d0d610b01565b5b610d1a86828701610c1e565b9250506040610d2b86828701610c95565b9150509250925092565b600060208284031215610d4b57610d4a610afc565b5b600082013567ffffffffffffffff811115610d6957610d68610b01565b5b610d7584828501610c1e565b91505092915050565b600081519050919050565b600082825260208201905092915050565b6000819050602082019050919050565b6000819050919050565b610dbd81610daa565b82525050565b6000610dcf8383610db4565b60208301905092915050565b6000602082019050919050565b6000610df382610d7e565b610dfd8185610d89565b9350610e0883610d9a565b8060005b83811015610e39578151610e208882610dc3565b9750610e2b83610ddb565b925050600181019050610e0c565b5085935050505092915050565b600081519050919050565b600082825260208201905092915050565b6000819050602082019050919050565b600081519050919050565b600082825260208201905092915050565b60005b83811015610eac578082015181840152602081019050610e91565b60008484015250505050565b6000610ec382610e72565b610ecd8185610e7d565b9350610edd818560208601610e8e565b610ee681610b10565b840191505092915050565b6000610efd8383610eb8565b905092915050565b6000602082019050919050565b6000610f1d82610e46565b610f278185610e51565b935083602082028501610f3985610e62565b8060005b85811015610f755784840389528151610f568582610ef1565b9450610f6183610f05565b925060208a01995050600181019050610f3d565b50829750879550505050505092915050565b60006040820190508181036000830152610fa18185610de8565b90508181036020830152610fb58184610f12565b90509392505050565b610fc781610c6c565b82525050565b60006080830160008301518482036000860152610fea8282610eb8565b9150506020830151610fff6020860182610db4565b50604083015184820360408601526110178282610eb8565b915050606083015161102c6060860182610fbe565b508091505092915050565b600060208201905081810360008301526110518184610fcd565b905092915050565b61106281610daa565b811461106d57600080fd5b50565b60008135905061107f81611059565b92915050565b6000806000806080858703121561109f5761109e610afc565b5b600085013567ffffffffffffffff8111156110bd576110bc610b01565b5b6110c987828801610c1e565b945050602085013567ffffffffffffffff8111156110ea576110e9610b01565b5b6110f687828801610c1e565b935050604061110787828801611070565b925050606085013567ffffffffffffffff81111561112857611127610b01565b5b61113487828801610c1e565b91505092959194509250565b600081905092915050565b600061115682610e72565b6111608185611140565b9350611170818560208601610e8e565b80840191505092915050565b6000611188828461114b565b915081905092915050565b600082825260208201905092915050565b7f4f6e6c79207468652070726f64756374206f776e65722063616e207472616e7360008201527f666572206f776e65727368697000000000000000000000000000000000000000602082015250565b6000611200602d83611193565b915061120b826111a4565b604082019050919050565b6000602082019050818103600083015261122f816111f3565b9050919050565b7f496e76616c6964206e6577206f776e6572206164647265737300000000000000600082015250565b600061126c601983611193565b915061127782611236565b602082019050919050565b6000602082019050818103600083015261129b8161125f565b9050919050565b7f496e76616c6964206e6577206f776e6572207479706500000000000000000000600082015250565b60006112d8601683611193565b91506112e3826112a2565b602082019050919050565b60006020820190508181036000830152611307816112cb565b9050919050565b7f4e487b7100000000000000000000000000000000000000000000000000000000600052603260045260246000fd5b7f4e487b7100000000000000000000000000000000000000000000000000000000600052602260045260246000fd5b6000600282049050600182168061138457607f821691505b6020821081036113975761139661133d565b5b50919050565b7f4e487b7100000000000000000000000000000000000000000000000000000000600052601160045260246000fd5b60006113d782610daa565b91507fffffffffffffffffffffffffffffffffffffffffffffffffffffffffffffffff82036114095761140861139d565b5b600182019050919050565b7f50726f647563742077697468207468697320494420646f6573206e6f7420657860008201527f6973740000000000000000000000000000000000000000000000000000000000602082015250565b6000611470602383611193565b915061147b82611414565b604082019050919050565b6000602082019050818103600083015261149f81611463565b9050919050565b7f50726f6475637420494420616c72656164792065786973747300000000000000600082015250565b60006114dc601983611193565b91506114e7826114a6565b602082019050919050565b6000602082019050818103600083015261150b816114cf565b9050919050565b60008190508160005260206000209050919050565b60006020601f8301049050919050565b600082821b905092915050565b6000600883026115747fffffffffffffffffffffffffffffffffffffffffffffffffffffffffffffffff82611537565b61157e8683611537565b95508019841693508086168417925050509392505050565b6000819050919050565b60006115bb6115b66115b184610daa565b611596565b610daa565b9050919050565b6000819050919050565b6115d5836115a0565b6115e96115e1826115c2565b848454611544565b825550505050565b600090565b6115fe6115f1565b6116098184846115cc565b505050565b5b8181101561162d576116226000826115f6565b60018101905061160f565b5050565b601f8211156116725761164381611512565b61164c84611527565b8101602085101561165b578190505b61166f61166785611527565b83018261160e565b50505b505050565b600082821c905092915050565b600061169560001984600802611677565b1980831691505092915050565b60006116ae8383611684565b9150826002028217905092915050565b6116c782610e72565b67ffffffffffffffff8111156116e0576116df610b21565b5b6116ea825461136c565b6116f5828285611631565b600060209050601f8311600181146117285760008415611716578287015190505b61172085826116a2565b865550611788565b601f19841661173686611512565b60005b8281101561175e57848901518255600182019150602085019450602081019050611739565b8683101561177b5784890151611777601f891682611684565b8355505b6001600288020188555050505b505050505050565b600061179b82610e72565b6117a58185611193565b93506117b5818560208601610e8e565b6117be81610b10565b840191505092915050565b6117d281610daa565b82525050565b6117e181610c6c565b82525050565b600060808201905081810360008301526118018187611790565b905061181060208301866117c9565b81810360408301526118228185611790565b905061183160608301846117d8565b95945050505050565b7f50726f64756374206164646564207375636365737366756c6c792e0000000000600082015250565b6000611870601b83611193565b915061187b8261183a565b602082019050919050565b6000602082019050818103600083015261189f81611863565b905091905056fea2646970667358221220358b97666229fab68551d23f07faf0b3039dcfb7531893b37e715e11a1cfa56f64736f6c63430008130033",
  "immutableReferences": {},
  "source": "//SPDX-License-Identifier: MIT\r\n\r\npragma solidity ^0.8.0;\r\n\r\ncontract Manufacturer {\r\n    struct Product {\r\n        string name;\r\n        uint price;\r\n        string productDescription;\r\n        address owner;\r\n    }\r\n\r\n    struct ProductEvent {\r\n        uint timestamp;\r\n        string description;\r\n        address from;\r\n        address to;\r\n        string newOwnerType;\r\n    }\r\n\r\n\r\n    mapping(string => Product) products; // stores all the products in the chain\r\n    mapping(string => ProductEvent[]) productEvents; // stores the timeline for each product\r\n    mapping(string => uint[]) productTimelineKeys; // stores the timeline keys for each product\r\n    event ProductAdded(string indexed id, string name, uint price, string productDescription, address owner);\r\n    event Success(string message);\r\n\r\n    function addProduct(string memory id, string memory name, uint price, string memory productDescription) public {\r\n        require(products[id].owner == address(0), \"Product ID already exists\");\r\n        products[id] = Product(name, price, productDescription, msg.sender);\r\n        emit ProductAdded(id, name, price, productDescription, msg.sender);\r\n        emit Success(\"Product added successfully.\");\r\n    }\r\n\r\n    function getProductInfo(string memory id) public view returns (Product memory) {\r\n    Product storage product = products[id];\r\n    require(product.owner != address(0), \"Product with this ID does not exist\");\r\n    return product;\r\n    }\r\n\r\n\r\n    \r\n    function transferOwnership(string memory id, string memory newOwnerType, address newOwner) public {\r\n    Product storage product = products[id];\r\n    require(product.owner == msg.sender, \"Only the product owner can transfer ownership\");\r\n    require(newOwner != address(0), \"Invalid new owner address\");\r\n    require(isValidNewOwnerType(newOwnerType), \"Invalid new owner type\");\r\n    product.owner = newOwner;\r\n    }\r\n\r\n    function getProductTimeline(string memory id) public view returns (uint[] memory, string[] memory) {\r\n    Product storage product = products[id];\r\n    uint[] storage timelineKeys = productTimelineKeys[id];\r\n    ProductEvent[] storage timelineEvents = productEvents[id];\r\n\r\n    uint[] memory timestamps = new uint[](timelineEvents.length);\r\n    string[] memory descriptions = new string[](timelineEvents.length);\r\n\r\n    for (uint i = 0; i < timelineEvents.length; i++) {\r\n        timestamps[i] = timelineEvents[i].timestamp;\r\n        descriptions[i] = timelineEvents[i].description;\r\n    }\r\n\r\n    return (timestamps, descriptions);\r\n    }\r\n\r\n    \r\n    function isValidNewOwnerType(string memory newOwnerType) private pure returns (bool) {\r\n        string[3] memory validNewOwnerTypes = [\"retailer\", \"distributor\", \"consumer\"];\r\n        for (uint i = 0; i < validNewOwnerTypes.length; i++) {\r\n            if (keccak256(abi.encodePacked(validNewOwnerTypes[i])) == keccak256(abi.encodePacked(newOwnerType))) {\r\n                return true;\r\n            }\r\n        }\r\n        return false;\r\n    }\r\n}\r\n",
  "sourcePath": "C:\\Users\\user\\Desktop\\code\\supplychain-app\\contracts\\Manufacturer.sol",
  "compiler": {
    "name": "solc",
    "version": "0.8.19+commit.7dd6d404.Emscripten.clang"
  },
  "schemaVersion": "3.4.13",
  "updatedAt": "2023-03-25T04:17:25.704Z",
  "devdoc": {
    "kind": "dev",
    "methods": {},
    "version": 1
  },
  "userdoc": {
    "kind": "user",
    "methods": {},
    "version": 1
  }
}